{
  "_format": "hh-sol-artifact-1",
  "contractName": "Uans",
  "sourceName": "contracts/Uans.sol",
  "abi": [
    {
      "inputs": [
        {
          "internalType": "string",
          "name": "_chainName",
          "type": "string"
        },
        {
          "internalType": "uint256",
          "name": "_chainId",
          "type": "uint256"
        },
        {
          "internalType": "address",
          "name": "_nftContractAddress",
          "type": "address"
        },
        {
          "internalType": "uint256",
          "name": "_tokenId",
          "type": "uint256"
        }
      ],
      "stateMutability": "nonpayable",
      "type": "constructor"
    },
    {
      "inputs": [],
      "name": "U",
      "outputs": [
        {
          "internalType": "string",
          "name": "",
          "type": "string"
        }
      ],
      "stateMutability": "view",
      "type": "function"
    },
    {
      "inputs": [],
      "name": "Ue",
      "outputs": [
        {
          "internalType": "string",
          "name": "",
          "type": "string"
        }
      ],
      "stateMutability": "view",
      "type": "function"
    },
    {
      "inputs": [],
      "name": "parameters",
      "outputs": [
        {
          "internalType": "string",
          "name": "chainName",
          "type": "string"
        },
        {
          "internalType": "uint256",
          "name": "chainId",
          "type": "uint256"
        },
        {
          "internalType": "address",
          "name": "nftContractAddress",
          "type": "address"
        },
        {
          "internalType": "uint256",
          "name": "tokenId",
          "type": "uint256"
        }
      ],
      "stateMutability": "view",
      "type": "function"
    },
    {
      "inputs": [
        {
          "internalType": "string",
          "name": "_chainName",
          "type": "string"
        },
        {
          "internalType": "uint256",
          "name": "_chainId",
          "type": "uint256"
        },
        {
          "internalType": "address",
          "name": "_nftContractAddress",
          "type": "address"
        },
        {
          "internalType": "uint256",
          "name": "_tokenId",
          "type": "uint256"
        }
      ],
      "name": "xyz",
      "outputs": [],
      "stateMutability": "nonpayable",
      "type": "function"
    }
  ],
  "bytecode": "0x60806040523480156200001157600080fd5b506040516200252338038062002523833981810160405281019062000037919062000d1c565b60405180608001604052808581526020018481526020018373ffffffffffffffffffffffffffffffffffffffff168152602001828152506000808201518160000190805190602001906200008d92919062000a2f565b506020820151816001015560408201518160020160006101000a81548173ffffffffffffffffffffffffffffffffffffffff021916908373ffffffffffffffffffffffffffffffffffffffff16021790555060608201518160030155905050620000fc620001d960201b60201c565b600490805190602001906200011392919062000a2f565b50620001b760048054620001279062000ddc565b80601f0160208091040260200160405190810160405280929190818152602001828054620001559062000ddc565b8015620001a65780601f106200017a57610100808354040283529160200191620001a6565b820191906000526020600020905b8154815290600101906020018083116200018857829003601f168201915b50505050506200031660201b60201c565b60059080519060200190620001ce92919062000a2f565b50505050506200115f565b60606000806000018054620001ee9062000ddc565b80601f01602080910402602001604051908101604052809291908181526020018280546200021c9062000ddc565b80156200026d5780601f1062000241576101008083540402835291602001916200026d565b820191906000526020600020905b8154815290600101906020018083116200024f57829003601f168201915b5050505050905060008060010154905060008060020160009054906101000a900473ffffffffffffffffffffffffffffffffffffffff169050600080600301549050600084620002c3856200035e60201b60201c565b620002d485620004d860201b60201c565b620002e5856200035e60201b60201c565b604051602001620002fa949392919062000eaf565b6040516020818303038152906040529050809550505050505090565b60606000826040516020016200032d919062000f02565b60405160208183030381529060405280519060200120905062000356816200080f60201b60201c565b915050919050565b60606000821415620003a8576040518060400160405280600181526020017f30000000000000000000000000000000000000000000000000000000000000008152509050620004d3565b600082905060005b60008214620003e0578080620003c69062000f4a565b915050600a82620003d8919062000fc7565b9150620003b0565b60008167ffffffffffffffff811115620003ff57620003fe62000b0e565b5b6040519080825280601f01601f191660200182016040528015620004325781602001600182028036833780820191505090505b5090505b60008514620004cc576001826200044e919062000fff565b9150600a856200045f91906200103a565b60306200046d919062001072565b60f81b818381518110620004865762000485620010cf565b5b60200101907effffffffffffffffffffffffffffffffffffffffffffffffffffffffffffff1916908160001a905350600a85620004c4919062000fc7565b945062000436565b8093505050505b919050565b606060008273ffffffffffffffffffffffffffffffffffffffff1660001b905060006040518060400160405280601081526020017f303132333435363738396162636465660000000000000000000000000000000081525090506000602a67ffffffffffffffff81111562000552576200055162000b0e565b5b6040519080825280601f01601f191660200182016040528015620005855781602001600182028036833780820191505090505b5090507f300000000000000000000000000000000000000000000000000000000000000081600081518110620005c057620005bf620010cf565b5b60200101907effffffffffffffffffffffffffffffffffffffffffffffffffffffffffffff1916908160001a9053507f780000000000000000000000000000000000000000000000000000000000000081600181518110620006275762000626620010cf565b5b60200101907effffffffffffffffffffffffffffffffffffffffffffffffffffffffffffff1916908160001a90535060005b6014811015620008035782600485600c8462000676919062001072565b602081106200068a5762000689620010cf565b5b1a60f81b7effffffffffffffffffffffffffffffffffffffffffffffffffffffffffffff1916901c60f81c60ff1681518110620006cc57620006cb620010cf565b5b602001015160f81c60f81b82600283620006e79190620010fe565b6002620006f5919062001072565b81518110620007095762000708620010cf565b5b60200101907effffffffffffffffffffffffffffffffffffffffffffffffffffffffffffff1916908160001a90535082600f60f81b85600c846200074e919062001072565b60208110620007625762000761620010cf565b5b1a60f81b1660f81c60ff1681518110620007815762000780620010cf565b5b602001015160f81c60f81b826002836200079c9190620010fe565b6003620007aa919062001072565b81518110620007be57620007bd620010cf565b5b60200101907effffffffffffffffffffffffffffffffffffffffffffffffffffffffffffff1916908160001a9053508080620007fa9062000f4a565b91505062000659565b50809350505050919050565b606060006040518060400160405280601081526020017f303132333435363738396162636465660000000000000000000000000000000081525090506000604067ffffffffffffffff8111156200086b576200086a62000b0e565b5b6040519080825280601f01601f1916602001820160405280156200089e5781602001600182028036833780820191505090505b50905060005b602081101562000a2457826004868360208110620008c757620008c6620010cf565b5b1a60f81b7effffffffffffffffffffffffffffffffffffffffffffffffffffffffffffff1916901c60f81c60ff1681518110620009095762000908620010cf565b5b602001015160f81c60f81b82600283620009249190620010fe565b81518110620009385762000937620010cf565b5b60200101907effffffffffffffffffffffffffffffffffffffffffffffffffffffffffffff1916908160001a90535082600f60f81b868360208110620009835762000982620010cf565b5b1a60f81b1660f81c60ff1681518110620009a257620009a1620010cf565b5b602001015160f81c60f81b826001600284620009bf9190620010fe565b620009cb919062001072565b81518110620009df57620009de620010cf565b5b60200101907effffffffffffffffffffffffffffffffffffffffffffffffffffffffffffff1916908160001a905350808062000a1b9062000f4a565b915050620008a4565b508092505050919050565b82805462000a3d9062000ddc565b90600052602060002090601f01602090048101928262000a61576000855562000aad565b82601f1062000a7c57805160ff191683800117855562000aad565b8280016001018555821562000aad579182015b8281111562000aac57825182559160200191906001019062000a8f565b5b50905062000abc919062000ac0565b5090565b5b8082111562000adb57600081600090555060010162000ac1565b5090565b6000604051905090565b600080fd5b600080fd5b600080fd5b600080fd5b6000601f19601f8301169050919050565b7f4e487b7100000000000000000000000000000000000000000000000000000000600052604160045260246000fd5b62000b488262000afd565b810181811067ffffffffffffffff8211171562000b6a5762000b6962000b0e565b5b80604052505050565b600062000b7f62000adf565b905062000b8d828262000b3d565b919050565b600067ffffffffffffffff82111562000bb05762000baf62000b0e565b5b62000bbb8262000afd565b9050602081019050919050565b60005b8381101562000be857808201518184015260208101905062000bcb565b8381111562000bf8576000848401525b50505050565b600062000c1562000c0f8462000b92565b62000b73565b90508281526020810184848401111562000c345762000c3362000af8565b5b62000c4184828562000bc8565b509392505050565b600082601f83011262000c615762000c6062000af3565b5b815162000c7384826020860162000bfe565b91505092915050565b6000819050919050565b62000c918162000c7c565b811462000c9d57600080fd5b50565b60008151905062000cb18162000c86565b92915050565b600073ffffffffffffffffffffffffffffffffffffffff82169050919050565b600062000ce48262000cb7565b9050919050565b62000cf68162000cd7565b811462000d0257600080fd5b50565b60008151905062000d168162000ceb565b92915050565b6000806000806080858703121562000d395762000d3862000ae9565b5b600085015167ffffffffffffffff81111562000d5a5762000d5962000aee565b5b62000d688782880162000c49565b945050602062000d7b8782880162000ca0565b935050604062000d8e8782880162000d05565b925050606062000da18782880162000ca0565b91505092959194509250565b7f4e487b7100000000000000000000000000000000000000000000000000000000600052602260045260246000fd5b6000600282049050600182168062000df557607f821691505b6020821081141562000e0c5762000e0b62000dad565b5b50919050565b600081519050919050565b600081905092915050565b600062000e358262000e12565b62000e41818562000e1d565b935062000e5381856020860162000bc8565b80840191505092915050565b7f2300000000000000000000000000000000000000000000000000000000000000600082015250565b600062000e9760018362000e1d565b915062000ea48262000e5f565b600182019050919050565b600062000ebd828762000e28565b915062000ecb828662000e28565b915062000ed9828562000e28565b915062000ee68262000e88565b915062000ef4828462000e28565b915081905095945050505050565b600062000f10828462000e28565b915081905092915050565b7f4e487b7100000000000000000000000000000000000000000000000000000000600052601160045260246000fd5b600062000f578262000c7c565b91507fffffffffffffffffffffffffffffffffffffffffffffffffffffffffffffffff82141562000f8d5762000f8c62000f1b565b5b600182019050919050565b7f4e487b7100000000000000000000000000000000000000000000000000000000600052601260045260246000fd5b600062000fd48262000c7c565b915062000fe18362000c7c565b92508262000ff45762000ff362000f98565b5b828204905092915050565b60006200100c8262000c7c565b9150620010198362000c7c565b9250828210156200102f576200102e62000f1b565b5b828203905092915050565b6000620010478262000c7c565b9150620010548362000c7c565b92508262001067576200106662000f98565b5b828206905092915050565b60006200107f8262000c7c565b91506200108c8362000c7c565b9250827fffffffffffffffffffffffffffffffffffffffffffffffffffffffffffffffff03821115620010c457620010c362000f1b565b5b828201905092915050565b7f4e487b7100000000000000000000000000000000000000000000000000000000600052603260045260246000fd5b60006200110b8262000c7c565b9150620011188362000c7c565b9250817fffffffffffffffffffffffffffffffffffffffffffffffffffffffffffffffff048311821515161562001154576200115362000f1b565b5b828202905092915050565b6113b4806200116f6000396000f3fe608060405234801561001057600080fd5b506004361061004c5760003560e01c806313642d9d146100515780632688454a1461006d578063890357301461008b578063e799944b146100ac575b600080fd5b61006b60048036038101906100669190610e82565b6100ca565b005b61007561024a565b6040516100829190610f8d565b60405180910390f35b6100936102d8565b6040516100a39493929190610fcd565b60405180910390f35b6100b461039e565b6040516100c19190610f8d565b60405180910390f35b60405180608001604052808581526020018481526020018373ffffffffffffffffffffffffffffffffffffffff1681526020018281525060008082015181600001908051906020019061011e929190610bf1565b506020820151816001015560408201518160020160006101000a81548173ffffffffffffffffffffffffffffffffffffffff021916908373ffffffffffffffffffffffffffffffffffffffff1602179055506060820151816003015590505061018561042c565b6004908051906020019061019a929190610bf1565b5061022e600480546101ab90611048565b80601f01602080910402602001604051908101604052809291908181526020018280546101d790611048565b80156102245780601f106101f957610100808354040283529160200191610224565b820191906000526020600020905b81548152906001019060200180831161020757829003601f168201915b5050505050610547565b60059080519060200190610243929190610bf1565b5050505050565b6004805461025790611048565b80601f016020809104026020016040519081016040528092919081815260200182805461028390611048565b80156102d05780601f106102a5576101008083540402835291602001916102d0565b820191906000526020600020905b8154815290600101906020018083116102b357829003601f168201915b505050505081565b60008060000180546102e990611048565b80601f016020809104026020016040519081016040528092919081815260200182805461031590611048565b80156103625780601f1061033757610100808354040283529160200191610362565b820191906000526020600020905b81548152906001019060200180831161034557829003601f168201915b5050505050908060010154908060020160009054906101000a900473ffffffffffffffffffffffffffffffffffffffff16908060030154905084565b600580546103ab90611048565b80601f01602080910402602001604051908101604052809291908181526020018280546103d790611048565b80156104245780601f106103f957610100808354040283529160200191610424565b820191906000526020600020905b81548152906001019060200180831161040757829003601f168201915b505050505081565b6060600080600001805461043f90611048565b80601f016020809104026020016040519081016040528092919081815260200182805461046b90611048565b80156104b85780601f1061048d576101008083540402835291602001916104b8565b820191906000526020600020905b81548152906001019060200180831161049b57829003601f168201915b5050505050905060008060010154905060008060020160009054906101000a900473ffffffffffffffffffffffffffffffffffffffff16905060008060030154905060008461050685610585565b61050f856106e6565b61051885610585565b60405160200161052b9493929190611102565b6040516020818303038152906040529050809550505050505090565b606060008260405160200161055c919061114b565b60405160208183030381529060405280519060200120905061057d816109f1565b915050919050565b606060008214156105cd576040518060400160405280600181526020017f300000000000000000000000000000000000000000000000000000000000000081525090506106e1565b600082905060005b600082146105ff5780806105e890611191565b915050600a826105f89190611209565b91506105d5565b60008167ffffffffffffffff81111561061b5761061a610cc3565b5b6040519080825280601f01601f19166020018201604052801561064d5781602001600182028036833780820191505090505b5090505b600085146106da57600182610666919061123a565b9150600a85610675919061126e565b6030610681919061129f565b60f81b818381518110610697576106966112f5565b5b60200101907effffffffffffffffffffffffffffffffffffffffffffffffffffffffffffff1916908160001a905350600a856106d39190611209565b9450610651565b8093505050505b919050565b606060008273ffffffffffffffffffffffffffffffffffffffff1660001b905060006040518060400160405280601081526020017f303132333435363738396162636465660000000000000000000000000000000081525090506000602a67ffffffffffffffff81111561075d5761075c610cc3565b5b6040519080825280601f01601f19166020018201604052801561078f5781602001600182028036833780820191505090505b5090507f3000000000000000000000000000000000000000000000000000000000000000816000815181106107c7576107c66112f5565b5b60200101907effffffffffffffffffffffffffffffffffffffffffffffffffffffffffffff1916908160001a9053507f78000000000000000000000000000000000000000000000000000000000000008160018151811061082b5761082a6112f5565b5b60200101907effffffffffffffffffffffffffffffffffffffffffffffffffffffffffffff1916908160001a90535060005b60148110156109e55782600485600c84610877919061129f565b60208110610888576108876112f5565b5b1a60f81b7effffffffffffffffffffffffffffffffffffffffffffffffffffffffffffff1916901c60f81c60ff16815181106108c7576108c66112f5565b5b602001015160f81c60f81b826002836108e09190611324565b60026108ec919061129f565b815181106108fd576108fc6112f5565b5b60200101907effffffffffffffffffffffffffffffffffffffffffffffffffffffffffffff1916908160001a90535082600f60f81b85600c84610940919061129f565b60208110610951576109506112f5565b5b1a60f81b1660f81c60ff168151811061096d5761096c6112f5565b5b602001015160f81c60f81b826002836109869190611324565b6003610992919061129f565b815181106109a3576109a26112f5565b5b60200101907effffffffffffffffffffffffffffffffffffffffffffffffffffffffffffff1916908160001a90535080806109dd90611191565b91505061085d565b50809350505050919050565b606060006040518060400160405280601081526020017f303132333435363738396162636465660000000000000000000000000000000081525090506000604067ffffffffffffffff811115610a4a57610a49610cc3565b5b6040519080825280601f01601f191660200182016040528015610a7c5781602001600182028036833780820191505090505b50905060005b6020811015610be657826004868360208110610aa157610aa06112f5565b5b1a60f81b7effffffffffffffffffffffffffffffffffffffffffffffffffffffffffffff1916901c60f81c60ff1681518110610ae057610adf6112f5565b5b602001015160f81c60f81b82600283610af99190611324565b81518110610b0a57610b096112f5565b5b60200101907effffffffffffffffffffffffffffffffffffffffffffffffffffffffffffff1916908160001a90535082600f60f81b868360208110610b5257610b516112f5565b5b1a60f81b1660f81c60ff1681518110610b6e57610b6d6112f5565b5b602001015160f81c60f81b826001600284610b899190611324565b610b93919061129f565b81518110610ba457610ba36112f5565b5b60200101907effffffffffffffffffffffffffffffffffffffffffffffffffffffffffffff1916908160001a9053508080610bde90611191565b915050610a82565b508092505050919050565b828054610bfd90611048565b90600052602060002090601f016020900481019282610c1f5760008555610c66565b82601f10610c3857805160ff1916838001178555610c66565b82800160010185558215610c66579182015b82811115610c65578251825591602001919060010190610c4a565b5b509050610c739190610c77565b5090565b5b80821115610c90576000816000905550600101610c78565b5090565b6000604051905090565b600080fd5b600080fd5b600080fd5b600080fd5b6000601f19601f8301169050919050565b7f4e487b7100000000000000000000000000000000000000000000000000000000600052604160045260246000fd5b610cfb82610cb2565b810181811067ffffffffffffffff82111715610d1a57610d19610cc3565b5b80604052505050565b6000610d2d610c94565b9050610d398282610cf2565b919050565b600067ffffffffffffffff821115610d5957610d58610cc3565b5b610d6282610cb2565b9050602081019050919050565b82818337600083830152505050565b6000610d91610d8c84610d3e565b610d23565b905082815260208101848484011115610dad57610dac610cad565b5b610db8848285610d6f565b509392505050565b600082601f830112610dd557610dd4610ca8565b5b8135610de5848260208601610d7e565b91505092915050565b6000819050919050565b610e0181610dee565b8114610e0c57600080fd5b50565b600081359050610e1e81610df8565b92915050565b600073ffffffffffffffffffffffffffffffffffffffff82169050919050565b6000610e4f82610e24565b9050919050565b610e5f81610e44565b8114610e6a57600080fd5b50565b600081359050610e7c81610e56565b92915050565b60008060008060808587031215610e9c57610e9b610c9e565b5b600085013567ffffffffffffffff811115610eba57610eb9610ca3565b5b610ec687828801610dc0565b9450506020610ed787828801610e0f565b9350506040610ee887828801610e6d565b9250506060610ef987828801610e0f565b91505092959194509250565b600081519050919050565b600082825260208201905092915050565b60005b83811015610f3f578082015181840152602081019050610f24565b83811115610f4e576000848401525b50505050565b6000610f5f82610f05565b610f698185610f10565b9350610f79818560208601610f21565b610f8281610cb2565b840191505092915050565b60006020820190508181036000830152610fa78184610f54565b905092915050565b610fb881610dee565b82525050565b610fc781610e44565b82525050565b60006080820190508181036000830152610fe78187610f54565b9050610ff66020830186610faf565b6110036040830185610fbe565b6110106060830184610faf565b95945050505050565b7f4e487b7100000000000000000000000000000000000000000000000000000000600052602260045260246000fd5b6000600282049050600182168061106057607f821691505b6020821081141561107457611073611019565b5b50919050565b600081905092915050565b600061109082610f05565b61109a818561107a565b93506110aa818560208601610f21565b80840191505092915050565b7f2300000000000000000000000000000000000000000000000000000000000000600082015250565b60006110ec60018361107a565b91506110f7826110b6565b600182019050919050565b600061110e8287611085565b915061111a8286611085565b91506111268285611085565b9150611131826110df565b915061113d8284611085565b915081905095945050505050565b60006111578284611085565b915081905092915050565b7f4e487b7100000000000000000000000000000000000000000000000000000000600052601160045260246000fd5b600061119c82610dee565b91507fffffffffffffffffffffffffffffffffffffffffffffffffffffffffffffffff8214156111cf576111ce611162565b5b600182019050919050565b7f4e487b7100000000000000000000000000000000000000000000000000000000600052601260045260246000fd5b600061121482610dee565b915061121f83610dee565b92508261122f5761122e6111da565b5b828204905092915050565b600061124582610dee565b915061125083610dee565b92508282101561126357611262611162565b5b828203905092915050565b600061127982610dee565b915061128483610dee565b925082611294576112936111da565b5b828206905092915050565b60006112aa82610dee565b91506112b583610dee565b9250827fffffffffffffffffffffffffffffffffffffffffffffffffffffffffffffffff038211156112ea576112e9611162565b5b828201905092915050565b7f4e487b7100000000000000000000000000000000000000000000000000000000600052603260045260246000fd5b600061132f82610dee565b915061133a83610dee565b9250817fffffffffffffffffffffffffffffffffffffffffffffffffffffffffffffffff048311821515161561137357611372611162565b5b82820290509291505056fea2646970667358221220e13eeb25807b658377eb479ab95c7e042d936580c7a72a1b48a26549847da6d264736f6c63430008090033",
  "linkReferences": {},
  "deployedLinkReferences": {}
}