{"contracts/Uans.sol":{"Uans":{"abi":[{"inputs":[{"internalType":"string","name":"_chainName","type":"string"},{"internalType":"uint256","name":"_chainId","type":"uint256"},{"internalType":"address","name":"_nftContractAddress","type":"address"},{"internalType":"uint256","name":"_tokenId","type":"uint256"}],"stateMutability":"nonpayable","type":"constructor"},{"inputs":[],"name":"U","outputs":[{"internalType":"string","name":"","type":"string"}],"stateMutability":"view","type":"function"},{"inputs":[],"name":"Ue","outputs":[{"internalType":"string","name":"","type":"string"}],"stateMutability":"view","type":"function"},{"inputs":[],"name":"parameters","outputs":[{"internalType":"string","name":"chainName","type":"string"},{"internalType":"uint256","name":"chainId","type":"uint256"},{"internalType":"address","name":"nftContractAddress","type":"address"},{"internalType":"uint256","name":"tokenId","type":"uint256"}],"stateMutability":"view","type":"function"},{"inputs":[{"internalType":"string","name":"_chainName","type":"string"},{"internalType":"uint256","name":"_chainId","type":"uint256"},{"internalType":"address","name":"_nftContractAddress","type":"address"},{"internalType":"uint256","name":"_tokenId","type":"uint256"}],"name":"xyz","outputs":[],"stateMutability":"nonpayable","type":"function"}],"evm":{"bytecode":{"linkReferences":{},"object":"60806040523480156200001157600080fd5b506040516200252338038062002523833981810160405281019062000037919062000d1c565b60405180608001604052808581526020018481526020018373ffffffffffffffffffffffffffffffffffffffff168152602001828152506000808201518160000190805190602001906200008d92919062000a2f565b506020820151816001015560408201518160020160006101000a81548173ffffffffffffffffffffffffffffffffffffffff021916908373ffffffffffffffffffffffffffffffffffffffff16021790555060608201518160030155905050620000fc620001d960201b60201c565b600490805190602001906200011392919062000a2f565b50620001b760048054620001279062000ddc565b80601f0160208091040260200160405190810160405280929190818152602001828054620001559062000ddc565b8015620001a65780601f106200017a57610100808354040283529160200191620001a6565b820191906000526020600020905b8154815290600101906020018083116200018857829003601f168201915b50505050506200031660201b60201c565b60059080519060200190620001ce92919062000a2f565b50505050506200115f565b60606000806000018054620001ee9062000ddc565b80601f01602080910402602001604051908101604052809291908181526020018280546200021c9062000ddc565b80156200026d5780601f1062000241576101008083540402835291602001916200026d565b820191906000526020600020905b8154815290600101906020018083116200024f57829003601f168201915b5050505050905060008060010154905060008060020160009054906101000a900473ffffffffffffffffffffffffffffffffffffffff169050600080600301549050600084620002c3856200035e60201b60201c565b620002d485620004d860201b60201c565b620002e5856200035e60201b60201c565b604051602001620002fa949392919062000eaf565b6040516020818303038152906040529050809550505050505090565b60606000826040516020016200032d919062000f02565b60405160208183030381529060405280519060200120905062000356816200080f60201b60201c565b915050919050565b60606000821415620003a8576040518060400160405280600181526020017f30000000000000000000000000000000000000000000000000000000000000008152509050620004d3565b600082905060005b60008214620003e0578080620003c69062000f4a565b915050600a82620003d8919062000fc7565b9150620003b0565b60008167ffffffffffffffff811115620003ff57620003fe62000b0e565b5b6040519080825280601f01601f191660200182016040528015620004325781602001600182028036833780820191505090505b5090505b60008514620004cc576001826200044e919062000fff565b9150600a856200045f91906200103a565b60306200046d919062001072565b60f81b818381518110620004865762000485620010cf565b5b60200101907effffffffffffffffffffffffffffffffffffffffffffffffffffffffffffff1916908160001a905350600a85620004c4919062000fc7565b945062000436565b8093505050505b919050565b606060008273ffffffffffffffffffffffffffffffffffffffff1660001b905060006040518060400160405280601081526020017f303132333435363738396162636465660000000000000000000000000000000081525090506000602a67ffffffffffffffff81111562000552576200055162000b0e565b5b6040519080825280601f01601f191660200182016040528015620005855781602001600182028036833780820191505090505b5090507f300000000000000000000000000000000000000000000000000000000000000081600081518110620005c057620005bf620010cf565b5b60200101907effffffffffffffffffffffffffffffffffffffffffffffffffffffffffffff1916908160001a9053507f780000000000000000000000000000000000000000000000000000000000000081600181518110620006275762000626620010cf565b5b60200101907effffffffffffffffffffffffffffffffffffffffffffffffffffffffffffff1916908160001a90535060005b6014811015620008035782600485600c8462000676919062001072565b602081106200068a5762000689620010cf565b5b1a60f81b7effffffffffffffffffffffffffffffffffffffffffffffffffffffffffffff1916901c60f81c60ff1681518110620006cc57620006cb620010cf565b5b602001015160f81c60f81b82600283620006e79190620010fe565b6002620006f5919062001072565b81518110620007095762000708620010cf565b5b60200101907effffffffffffffffffffffffffffffffffffffffffffffffffffffffffffff1916908160001a90535082600f60f81b85600c846200074e919062001072565b60208110620007625762000761620010cf565b5b1a60f81b1660f81c60ff1681518110620007815762000780620010cf565b5b602001015160f81c60f81b826002836200079c9190620010fe565b6003620007aa919062001072565b81518110620007be57620007bd620010cf565b5b60200101907effffffffffffffffffffffffffffffffffffffffffffffffffffffffffffff1916908160001a9053508080620007fa9062000f4a565b91505062000659565b50809350505050919050565b606060006040518060400160405280601081526020017f303132333435363738396162636465660000000000000000000000000000000081525090506000604067ffffffffffffffff8111156200086b576200086a62000b0e565b5b6040519080825280601f01601f1916602001820160405280156200089e5781602001600182028036833780820191505090505b50905060005b602081101562000a2457826004868360208110620008c757620008c6620010cf565b5b1a60f81b7effffffffffffffffffffffffffffffffffffffffffffffffffffffffffffff1916901c60f81c60ff1681518110620009095762000908620010cf565b5b602001015160f81c60f81b82600283620009249190620010fe565b81518110620009385762000937620010cf565b5b60200101907effffffffffffffffffffffffffffffffffffffffffffffffffffffffffffff1916908160001a90535082600f60f81b868360208110620009835762000982620010cf565b5b1a60f81b1660f81c60ff1681518110620009a257620009a1620010cf565b5b602001015160f81c60f81b826001600284620009bf9190620010fe565b620009cb919062001072565b81518110620009df57620009de620010cf565b5b60200101907effffffffffffffffffffffffffffffffffffffffffffffffffffffffffffff1916908160001a905350808062000a1b9062000f4a565b915050620008a4565b508092505050919050565b82805462000a3d9062000ddc565b90600052602060002090601f01602090048101928262000a61576000855562000aad565b82601f1062000a7c57805160ff191683800117855562000aad565b8280016001018555821562000aad579182015b8281111562000aac57825182559160200191906001019062000a8f565b5b50905062000abc919062000ac0565b5090565b5b8082111562000adb57600081600090555060010162000ac1565b5090565b6000604051905090565b600080fd5b600080fd5b600080fd5b600080fd5b6000601f19601f8301169050919050565b7f4e487b7100000000000000000000000000000000000000000000000000000000600052604160045260246000fd5b62000b488262000afd565b810181811067ffffffffffffffff8211171562000b6a5762000b6962000b0e565b5b80604052505050565b600062000b7f62000adf565b905062000b8d828262000b3d565b919050565b600067ffffffffffffffff82111562000bb05762000baf62000b0e565b5b62000bbb8262000afd565b9050602081019050919050565b60005b8381101562000be857808201518184015260208101905062000bcb565b8381111562000bf8576000848401525b50505050565b600062000c1562000c0f8462000b92565b62000b73565b90508281526020810184848401111562000c345762000c3362000af8565b5b62000c4184828562000bc8565b509392505050565b600082601f83011262000c615762000c6062000af3565b5b815162000c7384826020860162000bfe565b91505092915050565b6000819050919050565b62000c918162000c7c565b811462000c9d57600080fd5b50565b60008151905062000cb18162000c86565b92915050565b600073ffffffffffffffffffffffffffffffffffffffff82169050919050565b600062000ce48262000cb7565b9050919050565b62000cf68162000cd7565b811462000d0257600080fd5b50565b60008151905062000d168162000ceb565b92915050565b6000806000806080858703121562000d395762000d3862000ae9565b5b600085015167ffffffffffffffff81111562000d5a5762000d5962000aee565b5b62000d688782880162000c49565b945050602062000d7b8782880162000ca0565b935050604062000d8e8782880162000d05565b925050606062000da18782880162000ca0565b91505092959194509250565b7f4e487b7100000000000000000000000000000000000000000000000000000000600052602260045260246000fd5b6000600282049050600182168062000df557607f821691505b6020821081141562000e0c5762000e0b62000dad565b5b50919050565b600081519050919050565b600081905092915050565b600062000e358262000e12565b62000e41818562000e1d565b935062000e5381856020860162000bc8565b80840191505092915050565b7f2300000000000000000000000000000000000000000000000000000000000000600082015250565b600062000e9760018362000e1d565b915062000ea48262000e5f565b600182019050919050565b600062000ebd828762000e28565b915062000ecb828662000e28565b915062000ed9828562000e28565b915062000ee68262000e88565b915062000ef4828462000e28565b915081905095945050505050565b600062000f10828462000e28565b915081905092915050565b7f4e487b7100000000000000000000000000000000000000000000000000000000600052601160045260246000fd5b600062000f578262000c7c565b91507fffffffffffffffffffffffffffffffffffffffffffffffffffffffffffffffff82141562000f8d5762000f8c62000f1b565b5b600182019050919050565b7f4e487b7100000000000000000000000000000000000000000000000000000000600052601260045260246000fd5b600062000fd48262000c7c565b915062000fe18362000c7c565b92508262000ff45762000ff362000f98565b5b828204905092915050565b60006200100c8262000c7c565b9150620010198362000c7c565b9250828210156200102f576200102e62000f1b565b5b828203905092915050565b6000620010478262000c7c565b9150620010548362000c7c565b92508262001067576200106662000f98565b5b828206905092915050565b60006200107f8262000c7c565b91506200108c8362000c7c565b9250827fffffffffffffffffffffffffffffffffffffffffffffffffffffffffffffffff03821115620010c457620010c362000f1b565b5b828201905092915050565b7f4e487b7100000000000000000000000000000000000000000000000000000000600052603260045260246000fd5b60006200110b8262000c7c565b9150620011188362000c7c565b9250817fffffffffffffffffffffffffffffffffffffffffffffffffffffffffffffffff048311821515161562001154576200115362000f1b565b5b828202905092915050565b6113b4806200116f6000396000f3fe608060405234801561001057600080fd5b506004361061004c5760003560e01c806313642d9d146100515780632688454a1461006d578063890357301461008b578063e799944b146100ac575b600080fd5b61006b60048036038101906100669190610e82565b6100ca565b005b61007561024a565b6040516100829190610f8d565b60405180910390f35b6100936102d8565b6040516100a39493929190610fcd565b60405180910390f35b6100b461039e565b6040516100c19190610f8d565b60405180910390f35b60405180608001604052808581526020018481526020018373ffffffffffffffffffffffffffffffffffffffff1681526020018281525060008082015181600001908051906020019061011e929190610bf1565b506020820151816001015560408201518160020160006101000a81548173ffffffffffffffffffffffffffffffffffffffff021916908373ffffffffffffffffffffffffffffffffffffffff1602179055506060820151816003015590505061018561042c565b6004908051906020019061019a929190610bf1565b5061022e600480546101ab90611048565b80601f01602080910402602001604051908101604052809291908181526020018280546101d790611048565b80156102245780601f106101f957610100808354040283529160200191610224565b820191906000526020600020905b81548152906001019060200180831161020757829003601f168201915b5050505050610547565b60059080519060200190610243929190610bf1565b5050505050565b6004805461025790611048565b80601f016020809104026020016040519081016040528092919081815260200182805461028390611048565b80156102d05780601f106102a5576101008083540402835291602001916102d0565b820191906000526020600020905b8154815290600101906020018083116102b357829003601f168201915b505050505081565b60008060000180546102e990611048565b80601f016020809104026020016040519081016040528092919081815260200182805461031590611048565b80156103625780601f1061033757610100808354040283529160200191610362565b820191906000526020600020905b81548152906001019060200180831161034557829003601f168201915b5050505050908060010154908060020160009054906101000a900473ffffffffffffffffffffffffffffffffffffffff16908060030154905084565b600580546103ab90611048565b80601f01602080910402602001604051908101604052809291908181526020018280546103d790611048565b80156104245780601f106103f957610100808354040283529160200191610424565b820191906000526020600020905b81548152906001019060200180831161040757829003601f168201915b505050505081565b6060600080600001805461043f90611048565b80601f016020809104026020016040519081016040528092919081815260200182805461046b90611048565b80156104b85780601f1061048d576101008083540402835291602001916104b8565b820191906000526020600020905b81548152906001019060200180831161049b57829003601f168201915b5050505050905060008060010154905060008060020160009054906101000a900473ffffffffffffffffffffffffffffffffffffffff16905060008060030154905060008461050685610585565b61050f856106e6565b61051885610585565b60405160200161052b9493929190611102565b6040516020818303038152906040529050809550505050505090565b606060008260405160200161055c919061114b565b60405160208183030381529060405280519060200120905061057d816109f1565b915050919050565b606060008214156105cd576040518060400160405280600181526020017f300000000000000000000000000000000000000000000000000000000000000081525090506106e1565b600082905060005b600082146105ff5780806105e890611191565b915050600a826105f89190611209565b91506105d5565b60008167ffffffffffffffff81111561061b5761061a610cc3565b5b6040519080825280601f01601f19166020018201604052801561064d5781602001600182028036833780820191505090505b5090505b600085146106da57600182610666919061123a565b9150600a85610675919061126e565b6030610681919061129f565b60f81b818381518110610697576106966112f5565b5b60200101907effffffffffffffffffffffffffffffffffffffffffffffffffffffffffffff1916908160001a905350600a856106d39190611209565b9450610651565b8093505050505b919050565b606060008273ffffffffffffffffffffffffffffffffffffffff1660001b905060006040518060400160405280601081526020017f303132333435363738396162636465660000000000000000000000000000000081525090506000602a67ffffffffffffffff81111561075d5761075c610cc3565b5b6040519080825280601f01601f19166020018201604052801561078f5781602001600182028036833780820191505090505b5090507f3000000000000000000000000000000000000000000000000000000000000000816000815181106107c7576107c66112f5565b5b60200101907effffffffffffffffffffffffffffffffffffffffffffffffffffffffffffff1916908160001a9053507f78000000000000000000000000000000000000000000000000000000000000008160018151811061082b5761082a6112f5565b5b60200101907effffffffffffffffffffffffffffffffffffffffffffffffffffffffffffff1916908160001a90535060005b60148110156109e55782600485600c84610877919061129f565b60208110610888576108876112f5565b5b1a60f81b7effffffffffffffffffffffffffffffffffffffffffffffffffffffffffffff1916901c60f81c60ff16815181106108c7576108c66112f5565b5b602001015160f81c60f81b826002836108e09190611324565b60026108ec919061129f565b815181106108fd576108fc6112f5565b5b60200101907effffffffffffffffffffffffffffffffffffffffffffffffffffffffffffff1916908160001a90535082600f60f81b85600c84610940919061129f565b60208110610951576109506112f5565b5b1a60f81b1660f81c60ff168151811061096d5761096c6112f5565b5b602001015160f81c60f81b826002836109869190611324565b6003610992919061129f565b815181106109a3576109a26112f5565b5b60200101907effffffffffffffffffffffffffffffffffffffffffffffffffffffffffffff1916908160001a90535080806109dd90611191565b91505061085d565b50809350505050919050565b606060006040518060400160405280601081526020017f303132333435363738396162636465660000000000000000000000000000000081525090506000604067ffffffffffffffff811115610a4a57610a49610cc3565b5b6040519080825280601f01601f191660200182016040528015610a7c5781602001600182028036833780820191505090505b50905060005b6020811015610be657826004868360208110610aa157610aa06112f5565b5b1a60f81b7effffffffffffffffffffffffffffffffffffffffffffffffffffffffffffff1916901c60f81c60ff1681518110610ae057610adf6112f5565b5b602001015160f81c60f81b82600283610af99190611324565b81518110610b0a57610b096112f5565b5b60200101907effffffffffffffffffffffffffffffffffffffffffffffffffffffffffffff1916908160001a90535082600f60f81b868360208110610b5257610b516112f5565b5b1a60f81b1660f81c60ff1681518110610b6e57610b6d6112f5565b5b602001015160f81c60f81b826001600284610b899190611324565b610b93919061129f565b81518110610ba457610ba36112f5565b5b60200101907effffffffffffffffffffffffffffffffffffffffffffffffffffffffffffff1916908160001a9053508080610bde90611191565b915050610a82565b508092505050919050565b828054610bfd90611048565b90600052602060002090601f016020900481019282610c1f5760008555610c66565b82601f10610c3857805160ff1916838001178555610c66565b82800160010185558215610c66579182015b82811115610c65578251825591602001919060010190610c4a565b5b509050610c739190610c77565b5090565b5b80821115610c90576000816000905550600101610c78565b5090565b6000604051905090565b600080fd5b600080fd5b600080fd5b600080fd5b6000601f19601f8301169050919050565b7f4e487b7100000000000000000000000000000000000000000000000000000000600052604160045260246000fd5b610cfb82610cb2565b810181811067ffffffffffffffff82111715610d1a57610d19610cc3565b5b80604052505050565b6000610d2d610c94565b9050610d398282610cf2565b919050565b600067ffffffffffffffff821115610d5957610d58610cc3565b5b610d6282610cb2565b9050602081019050919050565b82818337600083830152505050565b6000610d91610d8c84610d3e565b610d23565b905082815260208101848484011115610dad57610dac610cad565b5b610db8848285610d6f565b509392505050565b600082601f830112610dd557610dd4610ca8565b5b8135610de5848260208601610d7e565b91505092915050565b6000819050919050565b610e0181610dee565b8114610e0c57600080fd5b50565b600081359050610e1e81610df8565b92915050565b600073ffffffffffffffffffffffffffffffffffffffff82169050919050565b6000610e4f82610e24565b9050919050565b610e5f81610e44565b8114610e6a57600080fd5b50565b600081359050610e7c81610e56565b92915050565b60008060008060808587031215610e9c57610e9b610c9e565b5b600085013567ffffffffffffffff811115610eba57610eb9610ca3565b5b610ec687828801610dc0565b9450506020610ed787828801610e0f565b9350506040610ee887828801610e6d565b9250506060610ef987828801610e0f565b91505092959194509250565b600081519050919050565b600082825260208201905092915050565b60005b83811015610f3f578082015181840152602081019050610f24565b83811115610f4e576000848401525b50505050565b6000610f5f82610f05565b610f698185610f10565b9350610f79818560208601610f21565b610f8281610cb2565b840191505092915050565b60006020820190508181036000830152610fa78184610f54565b905092915050565b610fb881610dee565b82525050565b610fc781610e44565b82525050565b60006080820190508181036000830152610fe78187610f54565b9050610ff66020830186610faf565b6110036040830185610fbe565b6110106060830184610faf565b95945050505050565b7f4e487b7100000000000000000000000000000000000000000000000000000000600052602260045260246000fd5b6000600282049050600182168061106057607f821691505b6020821081141561107457611073611019565b5b50919050565b600081905092915050565b600061109082610f05565b61109a818561107a565b93506110aa818560208601610f21565b80840191505092915050565b7f2300000000000000000000000000000000000000000000000000000000000000600082015250565b60006110ec60018361107a565b91506110f7826110b6565b600182019050919050565b600061110e8287611085565b915061111a8286611085565b91506111268285611085565b9150611131826110df565b915061113d8284611085565b915081905095945050505050565b60006111578284611085565b915081905092915050565b7f4e487b7100000000000000000000000000000000000000000000000000000000600052601160045260246000fd5b600061119c82610dee565b91507fffffffffffffffffffffffffffffffffffffffffffffffffffffffffffffffff8214156111cf576111ce611162565b5b600182019050919050565b7f4e487b7100000000000000000000000000000000000000000000000000000000600052601260045260246000fd5b600061121482610dee565b915061121f83610dee565b92508261122f5761122e6111da565b5b828204905092915050565b600061124582610dee565b915061125083610dee565b92508282101561126357611262611162565b5b828203905092915050565b600061127982610dee565b915061128483610dee565b925082611294576112936111da565b5b828206905092915050565b60006112aa82610dee565b91506112b583610dee565b9250827fffffffffffffffffffffffffffffffffffffffffffffffffffffffffffffffff038211156112ea576112e9611162565b5b828201905092915050565b7f4e487b7100000000000000000000000000000000000000000000000000000000600052603260045260246000fd5b600061132f82610dee565b915061133a83610dee565b9250817fffffffffffffffffffffffffffffffffffffffffffffffffffffffffffffffff048311821515161561137357611372611162565b5b82820290509291505056fea2646970667358221220e13eeb25807b658377eb479ab95c7e042d936580c7a72a1b48a26549847da6d264736f6c63430008090033","opcodes":"PUSH1 0x80 PUSH1 0x40 MSTORE CALLVALUE DUP1 ISZERO PUSH3 0x11 JUMPI PUSH1 0x0 DUP1 REVERT JUMPDEST POP PUSH1 0x40 MLOAD PUSH3 0x2523 CODESIZE SUB DUP1 PUSH3 0x2523 DUP4 CODECOPY DUP2 DUP2 ADD PUSH1 0x40 MSTORE DUP2 ADD SWAP1 PUSH3 0x37 SWAP2 SWAP1 PUSH3 0xD1C JUMP JUMPDEST PUSH1 0x40 MLOAD DUP1 PUSH1 0x80 ADD PUSH1 0x40 MSTORE DUP1 DUP6 DUP2 MSTORE PUSH1 0x20 ADD DUP5 DUP2 MSTORE PUSH1 0x20 ADD DUP4 PUSH20 0xFFFFFFFFFFFFFFFFFFFFFFFFFFFFFFFFFFFFFFFF AND DUP2 MSTORE PUSH1 0x20 ADD DUP3 DUP2 MSTORE POP PUSH1 0x0 DUP1 DUP3 ADD MLOAD DUP2 PUSH1 0x0 ADD SWAP1 DUP1 MLOAD SWAP1 PUSH1 0x20 ADD SWAP1 PUSH3 0x8D SWAP3 SWAP2 SWAP1 PUSH3 0xA2F JUMP JUMPDEST POP PUSH1 0x20 DUP3 ADD MLOAD DUP2 PUSH1 0x1 ADD SSTORE PUSH1 0x40 DUP3 ADD MLOAD DUP2 PUSH1 0x2 ADD PUSH1 0x0 PUSH2 0x100 EXP DUP2 SLOAD DUP2 PUSH20 0xFFFFFFFFFFFFFFFFFFFFFFFFFFFFFFFFFFFFFFFF MUL NOT AND SWAP1 DUP4 PUSH20 0xFFFFFFFFFFFFFFFFFFFFFFFFFFFFFFFFFFFFFFFF AND MUL OR SWAP1 SSTORE POP PUSH1 0x60 DUP3 ADD MLOAD DUP2 PUSH1 0x3 ADD SSTORE SWAP1 POP POP PUSH3 0xFC PUSH3 0x1D9 PUSH1 0x20 SHL PUSH1 0x20 SHR JUMP JUMPDEST PUSH1 0x4 SWAP1 DUP1 MLOAD SWAP1 PUSH1 0x20 ADD SWAP1 PUSH3 0x113 SWAP3 SWAP2 SWAP1 PUSH3 0xA2F JUMP JUMPDEST POP PUSH3 0x1B7 PUSH1 0x4 DUP1 SLOAD PUSH3 0x127 SWAP1 PUSH3 0xDDC JUMP JUMPDEST DUP1 PUSH1 0x1F ADD PUSH1 0x20 DUP1 SWAP2 DIV MUL PUSH1 0x20 ADD PUSH1 0x40 MLOAD SWAP1 DUP2 ADD PUSH1 0x40 MSTORE DUP1 SWAP3 SWAP2 SWAP1 DUP2 DUP2 MSTORE PUSH1 0x20 ADD DUP3 DUP1 SLOAD PUSH3 0x155 SWAP1 PUSH3 0xDDC JUMP JUMPDEST DUP1 ISZERO PUSH3 0x1A6 JUMPI DUP1 PUSH1 0x1F LT PUSH3 0x17A JUMPI PUSH2 0x100 DUP1 DUP4 SLOAD DIV MUL DUP4 MSTORE SWAP2 PUSH1 0x20 ADD SWAP2 PUSH3 0x1A6 JUMP JUMPDEST DUP3 ADD SWAP2 SWAP1 PUSH1 0x0 MSTORE PUSH1 0x20 PUSH1 0x0 KECCAK256 SWAP1 JUMPDEST DUP2 SLOAD DUP2 MSTORE SWAP1 PUSH1 0x1 ADD SWAP1 PUSH1 0x20 ADD DUP1 DUP4 GT PUSH3 0x188 JUMPI DUP3 SWAP1 SUB PUSH1 0x1F AND DUP3 ADD SWAP2 JUMPDEST POP POP POP POP POP PUSH3 0x316 PUSH1 0x20 SHL PUSH1 0x20 SHR JUMP JUMPDEST PUSH1 0x5 SWAP1 DUP1 MLOAD SWAP1 PUSH1 0x20 ADD SWAP1 PUSH3 0x1CE SWAP3 SWAP2 SWAP1 PUSH3 0xA2F JUMP JUMPDEST POP POP POP POP POP PUSH3 0x115F JUMP JUMPDEST PUSH1 0x60 PUSH1 0x0 DUP1 PUSH1 0x0 ADD DUP1 SLOAD PUSH3 0x1EE SWAP1 PUSH3 0xDDC JUMP JUMPDEST DUP1 PUSH1 0x1F ADD PUSH1 0x20 DUP1 SWAP2 DIV MUL PUSH1 0x20 ADD PUSH1 0x40 MLOAD SWAP1 DUP2 ADD PUSH1 0x40 MSTORE DUP1 SWAP3 SWAP2 SWAP1 DUP2 DUP2 MSTORE PUSH1 0x20 ADD DUP3 DUP1 SLOAD PUSH3 0x21C SWAP1 PUSH3 0xDDC JUMP JUMPDEST DUP1 ISZERO PUSH3 0x26D JUMPI DUP1 PUSH1 0x1F LT PUSH3 0x241 JUMPI PUSH2 0x100 DUP1 DUP4 SLOAD DIV MUL DUP4 MSTORE SWAP2 PUSH1 0x20 ADD SWAP2 PUSH3 0x26D JUMP JUMPDEST DUP3 ADD SWAP2 SWAP1 PUSH1 0x0 MSTORE PUSH1 0x20 PUSH1 0x0 KECCAK256 SWAP1 JUMPDEST DUP2 SLOAD DUP2 MSTORE SWAP1 PUSH1 0x1 ADD SWAP1 PUSH1 0x20 ADD DUP1 DUP4 GT PUSH3 0x24F JUMPI DUP3 SWAP1 SUB PUSH1 0x1F AND DUP3 ADD SWAP2 JUMPDEST POP POP POP POP POP SWAP1 POP PUSH1 0x0 DUP1 PUSH1 0x1 ADD SLOAD SWAP1 POP PUSH1 0x0 DUP1 PUSH1 0x2 ADD PUSH1 0x0 SWAP1 SLOAD SWAP1 PUSH2 0x100 EXP SWAP1 DIV PUSH20 0xFFFFFFFFFFFFFFFFFFFFFFFFFFFFFFFFFFFFFFFF AND SWAP1 POP PUSH1 0x0 DUP1 PUSH1 0x3 ADD SLOAD SWAP1 POP PUSH1 0x0 DUP5 PUSH3 0x2C3 DUP6 PUSH3 0x35E PUSH1 0x20 SHL PUSH1 0x20 SHR JUMP JUMPDEST PUSH3 0x2D4 DUP6 PUSH3 0x4D8 PUSH1 0x20 SHL PUSH1 0x20 SHR JUMP JUMPDEST PUSH3 0x2E5 DUP6 PUSH3 0x35E PUSH1 0x20 SHL PUSH1 0x20 SHR JUMP JUMPDEST PUSH1 0x40 MLOAD PUSH1 0x20 ADD PUSH3 0x2FA SWAP5 SWAP4 SWAP3 SWAP2 SWAP1 PUSH3 0xEAF JUMP JUMPDEST PUSH1 0x40 MLOAD PUSH1 0x20 DUP2 DUP4 SUB SUB DUP2 MSTORE SWAP1 PUSH1 0x40 MSTORE SWAP1 POP DUP1 SWAP6 POP POP POP POP POP POP SWAP1 JUMP JUMPDEST PUSH1 0x60 PUSH1 0x0 DUP3 PUSH1 0x40 MLOAD PUSH1 0x20 ADD PUSH3 0x32D SWAP2 SWAP1 PUSH3 0xF02 JUMP JUMPDEST PUSH1 0x40 MLOAD PUSH1 0x20 DUP2 DUP4 SUB SUB DUP2 MSTORE SWAP1 PUSH1 0x40 MSTORE DUP1 MLOAD SWAP1 PUSH1 0x20 ADD KECCAK256 SWAP1 POP PUSH3 0x356 DUP2 PUSH3 0x80F PUSH1 0x20 SHL PUSH1 0x20 SHR JUMP JUMPDEST SWAP2 POP POP SWAP2 SWAP1 POP JUMP JUMPDEST PUSH1 0x60 PUSH1 0x0 DUP3 EQ ISZERO PUSH3 0x3A8 JUMPI PUSH1 0x40 MLOAD DUP1 PUSH1 0x40 ADD PUSH1 0x40 MSTORE DUP1 PUSH1 0x1 DUP2 MSTORE PUSH1 0x20 ADD PUSH32 0x3000000000000000000000000000000000000000000000000000000000000000 DUP2 MSTORE POP SWAP1 POP PUSH3 0x4D3 JUMP JUMPDEST PUSH1 0x0 DUP3 SWAP1 POP PUSH1 0x0 JUMPDEST PUSH1 0x0 DUP3 EQ PUSH3 0x3E0 JUMPI DUP1 DUP1 PUSH3 0x3C6 SWAP1 PUSH3 0xF4A JUMP JUMPDEST SWAP2 POP POP PUSH1 0xA DUP3 PUSH3 0x3D8 SWAP2 SWAP1 PUSH3 0xFC7 JUMP JUMPDEST SWAP2 POP PUSH3 0x3B0 JUMP JUMPDEST PUSH1 0x0 DUP2 PUSH8 0xFFFFFFFFFFFFFFFF DUP2 GT ISZERO PUSH3 0x3FF JUMPI PUSH3 0x3FE PUSH3 0xB0E JUMP JUMPDEST JUMPDEST PUSH1 0x40 MLOAD SWAP1 DUP1 DUP3 MSTORE DUP1 PUSH1 0x1F ADD PUSH1 0x1F NOT AND PUSH1 0x20 ADD DUP3 ADD PUSH1 0x40 MSTORE DUP1 ISZERO PUSH3 0x432 JUMPI DUP2 PUSH1 0x20 ADD PUSH1 0x1 DUP3 MUL DUP1 CALLDATASIZE DUP4 CALLDATACOPY DUP1 DUP3 ADD SWAP2 POP POP SWAP1 POP JUMPDEST POP SWAP1 POP JUMPDEST PUSH1 0x0 DUP6 EQ PUSH3 0x4CC JUMPI PUSH1 0x1 DUP3 PUSH3 0x44E SWAP2 SWAP1 PUSH3 0xFFF JUMP JUMPDEST SWAP2 POP PUSH1 0xA DUP6 PUSH3 0x45F SWAP2 SWAP1 PUSH3 0x103A JUMP JUMPDEST PUSH1 0x30 PUSH3 0x46D SWAP2 SWAP1 PUSH3 0x1072 JUMP JUMPDEST PUSH1 0xF8 SHL DUP2 DUP4 DUP2 MLOAD DUP2 LT PUSH3 0x486 JUMPI PUSH3 0x485 PUSH3 0x10CF JUMP JUMPDEST JUMPDEST PUSH1 0x20 ADD ADD SWAP1 PUSH31 0xFFFFFFFFFFFFFFFFFFFFFFFFFFFFFFFFFFFFFFFFFFFFFFFFFFFFFFFFFFFFFF NOT AND SWAP1 DUP2 PUSH1 0x0 BYTE SWAP1 MSTORE8 POP PUSH1 0xA DUP6 PUSH3 0x4C4 SWAP2 SWAP1 PUSH3 0xFC7 JUMP JUMPDEST SWAP5 POP PUSH3 0x436 JUMP JUMPDEST DUP1 SWAP4 POP POP POP POP JUMPDEST SWAP2 SWAP1 POP JUMP JUMPDEST PUSH1 0x60 PUSH1 0x0 DUP3 PUSH20 0xFFFFFFFFFFFFFFFFFFFFFFFFFFFFFFFFFFFFFFFF AND PUSH1 0x0 SHL SWAP1 POP PUSH1 0x0 PUSH1 0x40 MLOAD DUP1 PUSH1 0x40 ADD PUSH1 0x40 MSTORE DUP1 PUSH1 0x10 DUP2 MSTORE PUSH1 0x20 ADD PUSH32 0x3031323334353637383961626364656600000000000000000000000000000000 DUP2 MSTORE POP SWAP1 POP PUSH1 0x0 PUSH1 0x2A PUSH8 0xFFFFFFFFFFFFFFFF DUP2 GT ISZERO PUSH3 0x552 JUMPI PUSH3 0x551 PUSH3 0xB0E JUMP JUMPDEST JUMPDEST PUSH1 0x40 MLOAD SWAP1 DUP1 DUP3 MSTORE DUP1 PUSH1 0x1F ADD PUSH1 0x1F NOT AND PUSH1 0x20 ADD DUP3 ADD PUSH1 0x40 MSTORE DUP1 ISZERO PUSH3 0x585 JUMPI DUP2 PUSH1 0x20 ADD PUSH1 0x1 DUP3 MUL DUP1 CALLDATASIZE DUP4 CALLDATACOPY DUP1 DUP3 ADD SWAP2 POP POP SWAP1 POP JUMPDEST POP SWAP1 POP PUSH32 0x3000000000000000000000000000000000000000000000000000000000000000 DUP2 PUSH1 0x0 DUP2 MLOAD DUP2 LT PUSH3 0x5C0 JUMPI PUSH3 0x5BF PUSH3 0x10CF JUMP JUMPDEST JUMPDEST PUSH1 0x20 ADD ADD SWAP1 PUSH31 0xFFFFFFFFFFFFFFFFFFFFFFFFFFFFFFFFFFFFFFFFFFFFFFFFFFFFFFFFFFFFFF NOT AND SWAP1 DUP2 PUSH1 0x0 BYTE SWAP1 MSTORE8 POP PUSH32 0x7800000000000000000000000000000000000000000000000000000000000000 DUP2 PUSH1 0x1 DUP2 MLOAD DUP2 LT PUSH3 0x627 JUMPI PUSH3 0x626 PUSH3 0x10CF JUMP JUMPDEST JUMPDEST PUSH1 0x20 ADD ADD SWAP1 PUSH31 0xFFFFFFFFFFFFFFFFFFFFFFFFFFFFFFFFFFFFFFFFFFFFFFFFFFFFFFFFFFFFFF NOT AND SWAP1 DUP2 PUSH1 0x0 BYTE SWAP1 MSTORE8 POP PUSH1 0x0 JUMPDEST PUSH1 0x14 DUP2 LT ISZERO PUSH3 0x803 JUMPI DUP3 PUSH1 0x4 DUP6 PUSH1 0xC DUP5 PUSH3 0x676 SWAP2 SWAP1 PUSH3 0x1072 JUMP JUMPDEST PUSH1 0x20 DUP2 LT PUSH3 0x68A JUMPI PUSH3 0x689 PUSH3 0x10CF JUMP JUMPDEST JUMPDEST BYTE PUSH1 0xF8 SHL PUSH31 0xFFFFFFFFFFFFFFFFFFFFFFFFFFFFFFFFFFFFFFFFFFFFFFFFFFFFFFFFFFFFFF NOT AND SWAP1 SHR PUSH1 0xF8 SHR PUSH1 0xFF AND DUP2 MLOAD DUP2 LT PUSH3 0x6CC JUMPI PUSH3 0x6CB PUSH3 0x10CF JUMP JUMPDEST JUMPDEST PUSH1 0x20 ADD ADD MLOAD PUSH1 0xF8 SHR PUSH1 0xF8 SHL DUP3 PUSH1 0x2 DUP4 PUSH3 0x6E7 SWAP2 SWAP1 PUSH3 0x10FE JUMP JUMPDEST PUSH1 0x2 PUSH3 0x6F5 SWAP2 SWAP1 PUSH3 0x1072 JUMP JUMPDEST DUP2 MLOAD DUP2 LT PUSH3 0x709 JUMPI PUSH3 0x708 PUSH3 0x10CF JUMP JUMPDEST JUMPDEST PUSH1 0x20 ADD ADD SWAP1 PUSH31 0xFFFFFFFFFFFFFFFFFFFFFFFFFFFFFFFFFFFFFFFFFFFFFFFFFFFFFFFFFFFFFF NOT AND SWAP1 DUP2 PUSH1 0x0 BYTE SWAP1 MSTORE8 POP DUP3 PUSH1 0xF PUSH1 0xF8 SHL DUP6 PUSH1 0xC DUP5 PUSH3 0x74E SWAP2 SWAP1 PUSH3 0x1072 JUMP JUMPDEST PUSH1 0x20 DUP2 LT PUSH3 0x762 JUMPI PUSH3 0x761 PUSH3 0x10CF JUMP JUMPDEST JUMPDEST BYTE PUSH1 0xF8 SHL AND PUSH1 0xF8 SHR PUSH1 0xFF AND DUP2 MLOAD DUP2 LT PUSH3 0x781 JUMPI PUSH3 0x780 PUSH3 0x10CF JUMP JUMPDEST JUMPDEST PUSH1 0x20 ADD ADD MLOAD PUSH1 0xF8 SHR PUSH1 0xF8 SHL DUP3 PUSH1 0x2 DUP4 PUSH3 0x79C SWAP2 SWAP1 PUSH3 0x10FE JUMP JUMPDEST PUSH1 0x3 PUSH3 0x7AA SWAP2 SWAP1 PUSH3 0x1072 JUMP JUMPDEST DUP2 MLOAD DUP2 LT PUSH3 0x7BE JUMPI PUSH3 0x7BD PUSH3 0x10CF JUMP JUMPDEST JUMPDEST PUSH1 0x20 ADD ADD SWAP1 PUSH31 0xFFFFFFFFFFFFFFFFFFFFFFFFFFFFFFFFFFFFFFFFFFFFFFFFFFFFFFFFFFFFFF NOT AND SWAP1 DUP2 PUSH1 0x0 BYTE SWAP1 MSTORE8 POP DUP1 DUP1 PUSH3 0x7FA SWAP1 PUSH3 0xF4A JUMP JUMPDEST SWAP2 POP POP PUSH3 0x659 JUMP JUMPDEST POP DUP1 SWAP4 POP POP POP POP SWAP2 SWAP1 POP JUMP JUMPDEST PUSH1 0x60 PUSH1 0x0 PUSH1 0x40 MLOAD DUP1 PUSH1 0x40 ADD PUSH1 0x40 MSTORE DUP1 PUSH1 0x10 DUP2 MSTORE PUSH1 0x20 ADD PUSH32 0x3031323334353637383961626364656600000000000000000000000000000000 DUP2 MSTORE POP SWAP1 POP PUSH1 0x0 PUSH1 0x40 PUSH8 0xFFFFFFFFFFFFFFFF DUP2 GT ISZERO PUSH3 0x86B JUMPI PUSH3 0x86A PUSH3 0xB0E JUMP JUMPDEST JUMPDEST PUSH1 0x40 MLOAD SWAP1 DUP1 DUP3 MSTORE DUP1 PUSH1 0x1F ADD PUSH1 0x1F NOT AND PUSH1 0x20 ADD DUP3 ADD PUSH1 0x40 MSTORE DUP1 ISZERO PUSH3 0x89E JUMPI DUP2 PUSH1 0x20 ADD PUSH1 0x1 DUP3 MUL DUP1 CALLDATASIZE DUP4 CALLDATACOPY DUP1 DUP3 ADD SWAP2 POP POP SWAP1 POP JUMPDEST POP SWAP1 POP PUSH1 0x0 JUMPDEST PUSH1 0x20 DUP2 LT ISZERO PUSH3 0xA24 JUMPI DUP3 PUSH1 0x4 DUP7 DUP4 PUSH1 0x20 DUP2 LT PUSH3 0x8C7 JUMPI PUSH3 0x8C6 PUSH3 0x10CF JUMP JUMPDEST JUMPDEST BYTE PUSH1 0xF8 SHL PUSH31 0xFFFFFFFFFFFFFFFFFFFFFFFFFFFFFFFFFFFFFFFFFFFFFFFFFFFFFFFFFFFFFF NOT AND SWAP1 SHR PUSH1 0xF8 SHR PUSH1 0xFF AND DUP2 MLOAD DUP2 LT PUSH3 0x909 JUMPI PUSH3 0x908 PUSH3 0x10CF JUMP JUMPDEST JUMPDEST PUSH1 0x20 ADD ADD MLOAD PUSH1 0xF8 SHR PUSH1 0xF8 SHL DUP3 PUSH1 0x2 DUP4 PUSH3 0x924 SWAP2 SWAP1 PUSH3 0x10FE JUMP JUMPDEST DUP2 MLOAD DUP2 LT PUSH3 0x938 JUMPI PUSH3 0x937 PUSH3 0x10CF JUMP JUMPDEST JUMPDEST PUSH1 0x20 ADD ADD SWAP1 PUSH31 0xFFFFFFFFFFFFFFFFFFFFFFFFFFFFFFFFFFFFFFFFFFFFFFFFFFFFFFFFFFFFFF NOT AND SWAP1 DUP2 PUSH1 0x0 BYTE SWAP1 MSTORE8 POP DUP3 PUSH1 0xF PUSH1 0xF8 SHL DUP7 DUP4 PUSH1 0x20 DUP2 LT PUSH3 0x983 JUMPI PUSH3 0x982 PUSH3 0x10CF JUMP JUMPDEST JUMPDEST BYTE PUSH1 0xF8 SHL AND PUSH1 0xF8 SHR PUSH1 0xFF AND DUP2 MLOAD DUP2 LT PUSH3 0x9A2 JUMPI PUSH3 0x9A1 PUSH3 0x10CF JUMP JUMPDEST JUMPDEST PUSH1 0x20 ADD ADD MLOAD PUSH1 0xF8 SHR PUSH1 0xF8 SHL DUP3 PUSH1 0x1 PUSH1 0x2 DUP5 PUSH3 0x9BF SWAP2 SWAP1 PUSH3 0x10FE JUMP JUMPDEST PUSH3 0x9CB SWAP2 SWAP1 PUSH3 0x1072 JUMP JUMPDEST DUP2 MLOAD DUP2 LT PUSH3 0x9DF JUMPI PUSH3 0x9DE PUSH3 0x10CF JUMP JUMPDEST JUMPDEST PUSH1 0x20 ADD ADD SWAP1 PUSH31 0xFFFFFFFFFFFFFFFFFFFFFFFFFFFFFFFFFFFFFFFFFFFFFFFFFFFFFFFFFFFFFF NOT AND SWAP1 DUP2 PUSH1 0x0 BYTE SWAP1 MSTORE8 POP DUP1 DUP1 PUSH3 0xA1B SWAP1 PUSH3 0xF4A JUMP JUMPDEST SWAP2 POP POP PUSH3 0x8A4 JUMP JUMPDEST POP DUP1 SWAP3 POP POP POP SWAP2 SWAP1 POP JUMP JUMPDEST DUP3 DUP1 SLOAD PUSH3 0xA3D SWAP1 PUSH3 0xDDC JUMP JUMPDEST SWAP1 PUSH1 0x0 MSTORE PUSH1 0x20 PUSH1 0x0 KECCAK256 SWAP1 PUSH1 0x1F ADD PUSH1 0x20 SWAP1 DIV DUP2 ADD SWAP3 DUP3 PUSH3 0xA61 JUMPI PUSH1 0x0 DUP6 SSTORE PUSH3 0xAAD JUMP JUMPDEST DUP3 PUSH1 0x1F LT PUSH3 0xA7C JUMPI DUP1 MLOAD PUSH1 0xFF NOT AND DUP4 DUP1 ADD OR DUP6 SSTORE PUSH3 0xAAD JUMP JUMPDEST DUP3 DUP1 ADD PUSH1 0x1 ADD DUP6 SSTORE DUP3 ISZERO PUSH3 0xAAD JUMPI SWAP2 DUP3 ADD JUMPDEST DUP3 DUP2 GT ISZERO PUSH3 0xAAC JUMPI DUP3 MLOAD DUP3 SSTORE SWAP2 PUSH1 0x20 ADD SWAP2 SWAP1 PUSH1 0x1 ADD SWAP1 PUSH3 0xA8F JUMP JUMPDEST JUMPDEST POP SWAP1 POP PUSH3 0xABC SWAP2 SWAP1 PUSH3 0xAC0 JUMP JUMPDEST POP SWAP1 JUMP JUMPDEST JUMPDEST DUP1 DUP3 GT ISZERO PUSH3 0xADB JUMPI PUSH1 0x0 DUP2 PUSH1 0x0 SWAP1 SSTORE POP PUSH1 0x1 ADD PUSH3 0xAC1 JUMP JUMPDEST POP SWAP1 JUMP JUMPDEST PUSH1 0x0 PUSH1 0x40 MLOAD SWAP1 POP SWAP1 JUMP JUMPDEST PUSH1 0x0 DUP1 REVERT JUMPDEST PUSH1 0x0 DUP1 REVERT JUMPDEST PUSH1 0x0 DUP1 REVERT JUMPDEST PUSH1 0x0 DUP1 REVERT JUMPDEST PUSH1 0x0 PUSH1 0x1F NOT PUSH1 0x1F DUP4 ADD AND SWAP1 POP SWAP2 SWAP1 POP JUMP JUMPDEST PUSH32 0x4E487B7100000000000000000000000000000000000000000000000000000000 PUSH1 0x0 MSTORE PUSH1 0x41 PUSH1 0x4 MSTORE PUSH1 0x24 PUSH1 0x0 REVERT JUMPDEST PUSH3 0xB48 DUP3 PUSH3 0xAFD JUMP JUMPDEST DUP2 ADD DUP2 DUP2 LT PUSH8 0xFFFFFFFFFFFFFFFF DUP3 GT OR ISZERO PUSH3 0xB6A JUMPI PUSH3 0xB69 PUSH3 0xB0E JUMP JUMPDEST JUMPDEST DUP1 PUSH1 0x40 MSTORE POP POP POP JUMP JUMPDEST PUSH1 0x0 PUSH3 0xB7F PUSH3 0xADF JUMP JUMPDEST SWAP1 POP PUSH3 0xB8D DUP3 DUP3 PUSH3 0xB3D JUMP JUMPDEST SWAP2 SWAP1 POP JUMP JUMPDEST PUSH1 0x0 PUSH8 0xFFFFFFFFFFFFFFFF DUP3 GT ISZERO PUSH3 0xBB0 JUMPI PUSH3 0xBAF PUSH3 0xB0E JUMP JUMPDEST JUMPDEST PUSH3 0xBBB DUP3 PUSH3 0xAFD JUMP JUMPDEST SWAP1 POP PUSH1 0x20 DUP2 ADD SWAP1 POP SWAP2 SWAP1 POP JUMP JUMPDEST PUSH1 0x0 JUMPDEST DUP4 DUP2 LT ISZERO PUSH3 0xBE8 JUMPI DUP1 DUP3 ADD MLOAD DUP2 DUP5 ADD MSTORE PUSH1 0x20 DUP2 ADD SWAP1 POP PUSH3 0xBCB JUMP JUMPDEST DUP4 DUP2 GT ISZERO PUSH3 0xBF8 JUMPI PUSH1 0x0 DUP5 DUP5 ADD MSTORE JUMPDEST POP POP POP POP JUMP JUMPDEST PUSH1 0x0 PUSH3 0xC15 PUSH3 0xC0F DUP5 PUSH3 0xB92 JUMP JUMPDEST PUSH3 0xB73 JUMP JUMPDEST SWAP1 POP DUP3 DUP2 MSTORE PUSH1 0x20 DUP2 ADD DUP5 DUP5 DUP5 ADD GT ISZERO PUSH3 0xC34 JUMPI PUSH3 0xC33 PUSH3 0xAF8 JUMP JUMPDEST JUMPDEST PUSH3 0xC41 DUP5 DUP3 DUP6 PUSH3 0xBC8 JUMP JUMPDEST POP SWAP4 SWAP3 POP POP POP JUMP JUMPDEST PUSH1 0x0 DUP3 PUSH1 0x1F DUP4 ADD SLT PUSH3 0xC61 JUMPI PUSH3 0xC60 PUSH3 0xAF3 JUMP JUMPDEST JUMPDEST DUP2 MLOAD PUSH3 0xC73 DUP5 DUP3 PUSH1 0x20 DUP7 ADD PUSH3 0xBFE JUMP JUMPDEST SWAP2 POP POP SWAP3 SWAP2 POP POP JUMP JUMPDEST PUSH1 0x0 DUP2 SWAP1 POP SWAP2 SWAP1 POP JUMP JUMPDEST PUSH3 0xC91 DUP2 PUSH3 0xC7C JUMP JUMPDEST DUP2 EQ PUSH3 0xC9D JUMPI PUSH1 0x0 DUP1 REVERT JUMPDEST POP JUMP JUMPDEST PUSH1 0x0 DUP2 MLOAD SWAP1 POP PUSH3 0xCB1 DUP2 PUSH3 0xC86 JUMP JUMPDEST SWAP3 SWAP2 POP POP JUMP JUMPDEST PUSH1 0x0 PUSH20 0xFFFFFFFFFFFFFFFFFFFFFFFFFFFFFFFFFFFFFFFF DUP3 AND SWAP1 POP SWAP2 SWAP1 POP JUMP JUMPDEST PUSH1 0x0 PUSH3 0xCE4 DUP3 PUSH3 0xCB7 JUMP JUMPDEST SWAP1 POP SWAP2 SWAP1 POP JUMP JUMPDEST PUSH3 0xCF6 DUP2 PUSH3 0xCD7 JUMP JUMPDEST DUP2 EQ PUSH3 0xD02 JUMPI PUSH1 0x0 DUP1 REVERT JUMPDEST POP JUMP JUMPDEST PUSH1 0x0 DUP2 MLOAD SWAP1 POP PUSH3 0xD16 DUP2 PUSH3 0xCEB JUMP JUMPDEST SWAP3 SWAP2 POP POP JUMP JUMPDEST PUSH1 0x0 DUP1 PUSH1 0x0 DUP1 PUSH1 0x80 DUP6 DUP8 SUB SLT ISZERO PUSH3 0xD39 JUMPI PUSH3 0xD38 PUSH3 0xAE9 JUMP JUMPDEST JUMPDEST PUSH1 0x0 DUP6 ADD MLOAD PUSH8 0xFFFFFFFFFFFFFFFF DUP2 GT ISZERO PUSH3 0xD5A JUMPI PUSH3 0xD59 PUSH3 0xAEE JUMP JUMPDEST JUMPDEST PUSH3 0xD68 DUP8 DUP3 DUP9 ADD PUSH3 0xC49 JUMP JUMPDEST SWAP5 POP POP PUSH1 0x20 PUSH3 0xD7B DUP8 DUP3 DUP9 ADD PUSH3 0xCA0 JUMP JUMPDEST SWAP4 POP POP PUSH1 0x40 PUSH3 0xD8E DUP8 DUP3 DUP9 ADD PUSH3 0xD05 JUMP JUMPDEST SWAP3 POP POP PUSH1 0x60 PUSH3 0xDA1 DUP8 DUP3 DUP9 ADD PUSH3 0xCA0 JUMP JUMPDEST SWAP2 POP POP SWAP3 SWAP6 SWAP2 SWAP5 POP SWAP3 POP JUMP JUMPDEST PUSH32 0x4E487B7100000000000000000000000000000000000000000000000000000000 PUSH1 0x0 MSTORE PUSH1 0x22 PUSH1 0x4 MSTORE PUSH1 0x24 PUSH1 0x0 REVERT JUMPDEST PUSH1 0x0 PUSH1 0x2 DUP3 DIV SWAP1 POP PUSH1 0x1 DUP3 AND DUP1 PUSH3 0xDF5 JUMPI PUSH1 0x7F DUP3 AND SWAP2 POP JUMPDEST PUSH1 0x20 DUP3 LT DUP2 EQ ISZERO PUSH3 0xE0C JUMPI PUSH3 0xE0B PUSH3 0xDAD JUMP JUMPDEST JUMPDEST POP SWAP2 SWAP1 POP JUMP JUMPDEST PUSH1 0x0 DUP2 MLOAD SWAP1 POP SWAP2 SWAP1 POP JUMP JUMPDEST PUSH1 0x0 DUP2 SWAP1 POP SWAP3 SWAP2 POP POP JUMP JUMPDEST PUSH1 0x0 PUSH3 0xE35 DUP3 PUSH3 0xE12 JUMP JUMPDEST PUSH3 0xE41 DUP2 DUP6 PUSH3 0xE1D JUMP JUMPDEST SWAP4 POP PUSH3 0xE53 DUP2 DUP6 PUSH1 0x20 DUP7 ADD PUSH3 0xBC8 JUMP JUMPDEST DUP1 DUP5 ADD SWAP2 POP POP SWAP3 SWAP2 POP POP JUMP JUMPDEST PUSH32 0x2300000000000000000000000000000000000000000000000000000000000000 PUSH1 0x0 DUP3 ADD MSTORE POP JUMP JUMPDEST PUSH1 0x0 PUSH3 0xE97 PUSH1 0x1 DUP4 PUSH3 0xE1D JUMP JUMPDEST SWAP2 POP PUSH3 0xEA4 DUP3 PUSH3 0xE5F JUMP JUMPDEST PUSH1 0x1 DUP3 ADD SWAP1 POP SWAP2 SWAP1 POP JUMP JUMPDEST PUSH1 0x0 PUSH3 0xEBD DUP3 DUP8 PUSH3 0xE28 JUMP JUMPDEST SWAP2 POP PUSH3 0xECB DUP3 DUP7 PUSH3 0xE28 JUMP JUMPDEST SWAP2 POP PUSH3 0xED9 DUP3 DUP6 PUSH3 0xE28 JUMP JUMPDEST SWAP2 POP PUSH3 0xEE6 DUP3 PUSH3 0xE88 JUMP JUMPDEST SWAP2 POP PUSH3 0xEF4 DUP3 DUP5 PUSH3 0xE28 JUMP JUMPDEST SWAP2 POP DUP2 SWAP1 POP SWAP6 SWAP5 POP POP POP POP POP JUMP JUMPDEST PUSH1 0x0 PUSH3 0xF10 DUP3 DUP5 PUSH3 0xE28 JUMP JUMPDEST SWAP2 POP DUP2 SWAP1 POP SWAP3 SWAP2 POP POP JUMP JUMPDEST PUSH32 0x4E487B7100000000000000000000000000000000000000000000000000000000 PUSH1 0x0 MSTORE PUSH1 0x11 PUSH1 0x4 MSTORE PUSH1 0x24 PUSH1 0x0 REVERT JUMPDEST PUSH1 0x0 PUSH3 0xF57 DUP3 PUSH3 0xC7C JUMP JUMPDEST SWAP2 POP PUSH32 0xFFFFFFFFFFFFFFFFFFFFFFFFFFFFFFFFFFFFFFFFFFFFFFFFFFFFFFFFFFFFFFFF DUP3 EQ ISZERO PUSH3 0xF8D JUMPI PUSH3 0xF8C PUSH3 0xF1B JUMP JUMPDEST JUMPDEST PUSH1 0x1 DUP3 ADD SWAP1 POP SWAP2 SWAP1 POP JUMP JUMPDEST PUSH32 0x4E487B7100000000000000000000000000000000000000000000000000000000 PUSH1 0x0 MSTORE PUSH1 0x12 PUSH1 0x4 MSTORE PUSH1 0x24 PUSH1 0x0 REVERT JUMPDEST PUSH1 0x0 PUSH3 0xFD4 DUP3 PUSH3 0xC7C JUMP JUMPDEST SWAP2 POP PUSH3 0xFE1 DUP4 PUSH3 0xC7C JUMP JUMPDEST SWAP3 POP DUP3 PUSH3 0xFF4 JUMPI PUSH3 0xFF3 PUSH3 0xF98 JUMP JUMPDEST JUMPDEST DUP3 DUP3 DIV SWAP1 POP SWAP3 SWAP2 POP POP JUMP JUMPDEST PUSH1 0x0 PUSH3 0x100C DUP3 PUSH3 0xC7C JUMP JUMPDEST SWAP2 POP PUSH3 0x1019 DUP4 PUSH3 0xC7C JUMP JUMPDEST SWAP3 POP DUP3 DUP3 LT ISZERO PUSH3 0x102F JUMPI PUSH3 0x102E PUSH3 0xF1B JUMP JUMPDEST JUMPDEST DUP3 DUP3 SUB SWAP1 POP SWAP3 SWAP2 POP POP JUMP JUMPDEST PUSH1 0x0 PUSH3 0x1047 DUP3 PUSH3 0xC7C JUMP JUMPDEST SWAP2 POP PUSH3 0x1054 DUP4 PUSH3 0xC7C JUMP JUMPDEST SWAP3 POP DUP3 PUSH3 0x1067 JUMPI PUSH3 0x1066 PUSH3 0xF98 JUMP JUMPDEST JUMPDEST DUP3 DUP3 MOD SWAP1 POP SWAP3 SWAP2 POP POP JUMP JUMPDEST PUSH1 0x0 PUSH3 0x107F DUP3 PUSH3 0xC7C JUMP JUMPDEST SWAP2 POP PUSH3 0x108C DUP4 PUSH3 0xC7C JUMP JUMPDEST SWAP3 POP DUP3 PUSH32 0xFFFFFFFFFFFFFFFFFFFFFFFFFFFFFFFFFFFFFFFFFFFFFFFFFFFFFFFFFFFFFFFF SUB DUP3 GT ISZERO PUSH3 0x10C4 JUMPI PUSH3 0x10C3 PUSH3 0xF1B JUMP JUMPDEST JUMPDEST DUP3 DUP3 ADD SWAP1 POP SWAP3 SWAP2 POP POP JUMP JUMPDEST PUSH32 0x4E487B7100000000000000000000000000000000000000000000000000000000 PUSH1 0x0 MSTORE PUSH1 0x32 PUSH1 0x4 MSTORE PUSH1 0x24 PUSH1 0x0 REVERT JUMPDEST PUSH1 0x0 PUSH3 0x110B DUP3 PUSH3 0xC7C JUMP JUMPDEST SWAP2 POP PUSH3 0x1118 DUP4 PUSH3 0xC7C JUMP JUMPDEST SWAP3 POP DUP2 PUSH32 0xFFFFFFFFFFFFFFFFFFFFFFFFFFFFFFFFFFFFFFFFFFFFFFFFFFFFFFFFFFFFFFFF DIV DUP4 GT DUP3 ISZERO ISZERO AND ISZERO PUSH3 0x1154 JUMPI PUSH3 0x1153 PUSH3 0xF1B JUMP JUMPDEST JUMPDEST DUP3 DUP3 MUL SWAP1 POP SWAP3 SWAP2 POP POP JUMP JUMPDEST PUSH2 0x13B4 DUP1 PUSH3 0x116F PUSH1 0x0 CODECOPY PUSH1 0x0 RETURN INVALID PUSH1 0x80 PUSH1 0x40 MSTORE CALLVALUE DUP1 ISZERO PUSH2 0x10 JUMPI PUSH1 0x0 DUP1 REVERT JUMPDEST POP PUSH1 0x4 CALLDATASIZE LT PUSH2 0x4C JUMPI PUSH1 0x0 CALLDATALOAD PUSH1 0xE0 SHR DUP1 PUSH4 0x13642D9D EQ PUSH2 0x51 JUMPI DUP1 PUSH4 0x2688454A EQ PUSH2 0x6D JUMPI DUP1 PUSH4 0x89035730 EQ PUSH2 0x8B JUMPI DUP1 PUSH4 0xE799944B EQ PUSH2 0xAC JUMPI JUMPDEST PUSH1 0x0 DUP1 REVERT JUMPDEST PUSH2 0x6B PUSH1 0x4 DUP1 CALLDATASIZE SUB DUP2 ADD SWAP1 PUSH2 0x66 SWAP2 SWAP1 PUSH2 0xE82 JUMP JUMPDEST PUSH2 0xCA JUMP JUMPDEST STOP JUMPDEST PUSH2 0x75 PUSH2 0x24A JUMP JUMPDEST PUSH1 0x40 MLOAD PUSH2 0x82 SWAP2 SWAP1 PUSH2 0xF8D JUMP JUMPDEST PUSH1 0x40 MLOAD DUP1 SWAP2 SUB SWAP1 RETURN JUMPDEST PUSH2 0x93 PUSH2 0x2D8 JUMP JUMPDEST PUSH1 0x40 MLOAD PUSH2 0xA3 SWAP5 SWAP4 SWAP3 SWAP2 SWAP1 PUSH2 0xFCD JUMP JUMPDEST PUSH1 0x40 MLOAD DUP1 SWAP2 SUB SWAP1 RETURN JUMPDEST PUSH2 0xB4 PUSH2 0x39E JUMP JUMPDEST PUSH1 0x40 MLOAD PUSH2 0xC1 SWAP2 SWAP1 PUSH2 0xF8D JUMP JUMPDEST PUSH1 0x40 MLOAD DUP1 SWAP2 SUB SWAP1 RETURN JUMPDEST PUSH1 0x40 MLOAD DUP1 PUSH1 0x80 ADD PUSH1 0x40 MSTORE DUP1 DUP6 DUP2 MSTORE PUSH1 0x20 ADD DUP5 DUP2 MSTORE PUSH1 0x20 ADD DUP4 PUSH20 0xFFFFFFFFFFFFFFFFFFFFFFFFFFFFFFFFFFFFFFFF AND DUP2 MSTORE PUSH1 0x20 ADD DUP3 DUP2 MSTORE POP PUSH1 0x0 DUP1 DUP3 ADD MLOAD DUP2 PUSH1 0x0 ADD SWAP1 DUP1 MLOAD SWAP1 PUSH1 0x20 ADD SWAP1 PUSH2 0x11E SWAP3 SWAP2 SWAP1 PUSH2 0xBF1 JUMP JUMPDEST POP PUSH1 0x20 DUP3 ADD MLOAD DUP2 PUSH1 0x1 ADD SSTORE PUSH1 0x40 DUP3 ADD MLOAD DUP2 PUSH1 0x2 ADD PUSH1 0x0 PUSH2 0x100 EXP DUP2 SLOAD DUP2 PUSH20 0xFFFFFFFFFFFFFFFFFFFFFFFFFFFFFFFFFFFFFFFF MUL NOT AND SWAP1 DUP4 PUSH20 0xFFFFFFFFFFFFFFFFFFFFFFFFFFFFFFFFFFFFFFFF AND MUL OR SWAP1 SSTORE POP PUSH1 0x60 DUP3 ADD MLOAD DUP2 PUSH1 0x3 ADD SSTORE SWAP1 POP POP PUSH2 0x185 PUSH2 0x42C JUMP JUMPDEST PUSH1 0x4 SWAP1 DUP1 MLOAD SWAP1 PUSH1 0x20 ADD SWAP1 PUSH2 0x19A SWAP3 SWAP2 SWAP1 PUSH2 0xBF1 JUMP JUMPDEST POP PUSH2 0x22E PUSH1 0x4 DUP1 SLOAD PUSH2 0x1AB SWAP1 PUSH2 0x1048 JUMP JUMPDEST DUP1 PUSH1 0x1F ADD PUSH1 0x20 DUP1 SWAP2 DIV MUL PUSH1 0x20 ADD PUSH1 0x40 MLOAD SWAP1 DUP2 ADD PUSH1 0x40 MSTORE DUP1 SWAP3 SWAP2 SWAP1 DUP2 DUP2 MSTORE PUSH1 0x20 ADD DUP3 DUP1 SLOAD PUSH2 0x1D7 SWAP1 PUSH2 0x1048 JUMP JUMPDEST DUP1 ISZERO PUSH2 0x224 JUMPI DUP1 PUSH1 0x1F LT PUSH2 0x1F9 JUMPI PUSH2 0x100 DUP1 DUP4 SLOAD DIV MUL DUP4 MSTORE SWAP2 PUSH1 0x20 ADD SWAP2 PUSH2 0x224 JUMP JUMPDEST DUP3 ADD SWAP2 SWAP1 PUSH1 0x0 MSTORE PUSH1 0x20 PUSH1 0x0 KECCAK256 SWAP1 JUMPDEST DUP2 SLOAD DUP2 MSTORE SWAP1 PUSH1 0x1 ADD SWAP1 PUSH1 0x20 ADD DUP1 DUP4 GT PUSH2 0x207 JUMPI DUP3 SWAP1 SUB PUSH1 0x1F AND DUP3 ADD SWAP2 JUMPDEST POP POP POP POP POP PUSH2 0x547 JUMP JUMPDEST PUSH1 0x5 SWAP1 DUP1 MLOAD SWAP1 PUSH1 0x20 ADD SWAP1 PUSH2 0x243 SWAP3 SWAP2 SWAP1 PUSH2 0xBF1 JUMP JUMPDEST POP POP POP POP POP JUMP JUMPDEST PUSH1 0x4 DUP1 SLOAD PUSH2 0x257 SWAP1 PUSH2 0x1048 JUMP JUMPDEST DUP1 PUSH1 0x1F ADD PUSH1 0x20 DUP1 SWAP2 DIV MUL PUSH1 0x20 ADD PUSH1 0x40 MLOAD SWAP1 DUP2 ADD PUSH1 0x40 MSTORE DUP1 SWAP3 SWAP2 SWAP1 DUP2 DUP2 MSTORE PUSH1 0x20 ADD DUP3 DUP1 SLOAD PUSH2 0x283 SWAP1 PUSH2 0x1048 JUMP JUMPDEST DUP1 ISZERO PUSH2 0x2D0 JUMPI DUP1 PUSH1 0x1F LT PUSH2 0x2A5 JUMPI PUSH2 0x100 DUP1 DUP4 SLOAD DIV MUL DUP4 MSTORE SWAP2 PUSH1 0x20 ADD SWAP2 PUSH2 0x2D0 JUMP JUMPDEST DUP3 ADD SWAP2 SWAP1 PUSH1 0x0 MSTORE PUSH1 0x20 PUSH1 0x0 KECCAK256 SWAP1 JUMPDEST DUP2 SLOAD DUP2 MSTORE SWAP1 PUSH1 0x1 ADD SWAP1 PUSH1 0x20 ADD DUP1 DUP4 GT PUSH2 0x2B3 JUMPI DUP3 SWAP1 SUB PUSH1 0x1F AND DUP3 ADD SWAP2 JUMPDEST POP POP POP POP POP DUP2 JUMP JUMPDEST PUSH1 0x0 DUP1 PUSH1 0x0 ADD DUP1 SLOAD PUSH2 0x2E9 SWAP1 PUSH2 0x1048 JUMP JUMPDEST DUP1 PUSH1 0x1F ADD PUSH1 0x20 DUP1 SWAP2 DIV MUL PUSH1 0x20 ADD PUSH1 0x40 MLOAD SWAP1 DUP2 ADD PUSH1 0x40 MSTORE DUP1 SWAP3 SWAP2 SWAP1 DUP2 DUP2 MSTORE PUSH1 0x20 ADD DUP3 DUP1 SLOAD PUSH2 0x315 SWAP1 PUSH2 0x1048 JUMP JUMPDEST DUP1 ISZERO PUSH2 0x362 JUMPI DUP1 PUSH1 0x1F LT PUSH2 0x337 JUMPI PUSH2 0x100 DUP1 DUP4 SLOAD DIV MUL DUP4 MSTORE SWAP2 PUSH1 0x20 ADD SWAP2 PUSH2 0x362 JUMP JUMPDEST DUP3 ADD SWAP2 SWAP1 PUSH1 0x0 MSTORE PUSH1 0x20 PUSH1 0x0 KECCAK256 SWAP1 JUMPDEST DUP2 SLOAD DUP2 MSTORE SWAP1 PUSH1 0x1 ADD SWAP1 PUSH1 0x20 ADD DUP1 DUP4 GT PUSH2 0x345 JUMPI DUP3 SWAP1 SUB PUSH1 0x1F AND DUP3 ADD SWAP2 JUMPDEST POP POP POP POP POP SWAP1 DUP1 PUSH1 0x1 ADD SLOAD SWAP1 DUP1 PUSH1 0x2 ADD PUSH1 0x0 SWAP1 SLOAD SWAP1 PUSH2 0x100 EXP SWAP1 DIV PUSH20 0xFFFFFFFFFFFFFFFFFFFFFFFFFFFFFFFFFFFFFFFF AND SWAP1 DUP1 PUSH1 0x3 ADD SLOAD SWAP1 POP DUP5 JUMP JUMPDEST PUSH1 0x5 DUP1 SLOAD PUSH2 0x3AB SWAP1 PUSH2 0x1048 JUMP JUMPDEST DUP1 PUSH1 0x1F ADD PUSH1 0x20 DUP1 SWAP2 DIV MUL PUSH1 0x20 ADD PUSH1 0x40 MLOAD SWAP1 DUP2 ADD PUSH1 0x40 MSTORE DUP1 SWAP3 SWAP2 SWAP1 DUP2 DUP2 MSTORE PUSH1 0x20 ADD DUP3 DUP1 SLOAD PUSH2 0x3D7 SWAP1 PUSH2 0x1048 JUMP JUMPDEST DUP1 ISZERO PUSH2 0x424 JUMPI DUP1 PUSH1 0x1F LT PUSH2 0x3F9 JUMPI PUSH2 0x100 DUP1 DUP4 SLOAD DIV MUL DUP4 MSTORE SWAP2 PUSH1 0x20 ADD SWAP2 PUSH2 0x424 JUMP JUMPDEST DUP3 ADD SWAP2 SWAP1 PUSH1 0x0 MSTORE PUSH1 0x20 PUSH1 0x0 KECCAK256 SWAP1 JUMPDEST DUP2 SLOAD DUP2 MSTORE SWAP1 PUSH1 0x1 ADD SWAP1 PUSH1 0x20 ADD DUP1 DUP4 GT PUSH2 0x407 JUMPI DUP3 SWAP1 SUB PUSH1 0x1F AND DUP3 ADD SWAP2 JUMPDEST POP POP POP POP POP DUP2 JUMP JUMPDEST PUSH1 0x60 PUSH1 0x0 DUP1 PUSH1 0x0 ADD DUP1 SLOAD PUSH2 0x43F SWAP1 PUSH2 0x1048 JUMP JUMPDEST DUP1 PUSH1 0x1F ADD PUSH1 0x20 DUP1 SWAP2 DIV MUL PUSH1 0x20 ADD PUSH1 0x40 MLOAD SWAP1 DUP2 ADD PUSH1 0x40 MSTORE DUP1 SWAP3 SWAP2 SWAP1 DUP2 DUP2 MSTORE PUSH1 0x20 ADD DUP3 DUP1 SLOAD PUSH2 0x46B SWAP1 PUSH2 0x1048 JUMP JUMPDEST DUP1 ISZERO PUSH2 0x4B8 JUMPI DUP1 PUSH1 0x1F LT PUSH2 0x48D JUMPI PUSH2 0x100 DUP1 DUP4 SLOAD DIV MUL DUP4 MSTORE SWAP2 PUSH1 0x20 ADD SWAP2 PUSH2 0x4B8 JUMP JUMPDEST DUP3 ADD SWAP2 SWAP1 PUSH1 0x0 MSTORE PUSH1 0x20 PUSH1 0x0 KECCAK256 SWAP1 JUMPDEST DUP2 SLOAD DUP2 MSTORE SWAP1 PUSH1 0x1 ADD SWAP1 PUSH1 0x20 ADD DUP1 DUP4 GT PUSH2 0x49B JUMPI DUP3 SWAP1 SUB PUSH1 0x1F AND DUP3 ADD SWAP2 JUMPDEST POP POP POP POP POP SWAP1 POP PUSH1 0x0 DUP1 PUSH1 0x1 ADD SLOAD SWAP1 POP PUSH1 0x0 DUP1 PUSH1 0x2 ADD PUSH1 0x0 SWAP1 SLOAD SWAP1 PUSH2 0x100 EXP SWAP1 DIV PUSH20 0xFFFFFFFFFFFFFFFFFFFFFFFFFFFFFFFFFFFFFFFF AND SWAP1 POP PUSH1 0x0 DUP1 PUSH1 0x3 ADD SLOAD SWAP1 POP PUSH1 0x0 DUP5 PUSH2 0x506 DUP6 PUSH2 0x585 JUMP JUMPDEST PUSH2 0x50F DUP6 PUSH2 0x6E6 JUMP JUMPDEST PUSH2 0x518 DUP6 PUSH2 0x585 JUMP JUMPDEST PUSH1 0x40 MLOAD PUSH1 0x20 ADD PUSH2 0x52B SWAP5 SWAP4 SWAP3 SWAP2 SWAP1 PUSH2 0x1102 JUMP JUMPDEST PUSH1 0x40 MLOAD PUSH1 0x20 DUP2 DUP4 SUB SUB DUP2 MSTORE SWAP1 PUSH1 0x40 MSTORE SWAP1 POP DUP1 SWAP6 POP POP POP POP POP POP SWAP1 JUMP JUMPDEST PUSH1 0x60 PUSH1 0x0 DUP3 PUSH1 0x40 MLOAD PUSH1 0x20 ADD PUSH2 0x55C SWAP2 SWAP1 PUSH2 0x114B JUMP JUMPDEST PUSH1 0x40 MLOAD PUSH1 0x20 DUP2 DUP4 SUB SUB DUP2 MSTORE SWAP1 PUSH1 0x40 MSTORE DUP1 MLOAD SWAP1 PUSH1 0x20 ADD KECCAK256 SWAP1 POP PUSH2 0x57D DUP2 PUSH2 0x9F1 JUMP JUMPDEST SWAP2 POP POP SWAP2 SWAP1 POP JUMP JUMPDEST PUSH1 0x60 PUSH1 0x0 DUP3 EQ ISZERO PUSH2 0x5CD JUMPI PUSH1 0x40 MLOAD DUP1 PUSH1 0x40 ADD PUSH1 0x40 MSTORE DUP1 PUSH1 0x1 DUP2 MSTORE PUSH1 0x20 ADD PUSH32 0x3000000000000000000000000000000000000000000000000000000000000000 DUP2 MSTORE POP SWAP1 POP PUSH2 0x6E1 JUMP JUMPDEST PUSH1 0x0 DUP3 SWAP1 POP PUSH1 0x0 JUMPDEST PUSH1 0x0 DUP3 EQ PUSH2 0x5FF JUMPI DUP1 DUP1 PUSH2 0x5E8 SWAP1 PUSH2 0x1191 JUMP JUMPDEST SWAP2 POP POP PUSH1 0xA DUP3 PUSH2 0x5F8 SWAP2 SWAP1 PUSH2 0x1209 JUMP JUMPDEST SWAP2 POP PUSH2 0x5D5 JUMP JUMPDEST PUSH1 0x0 DUP2 PUSH8 0xFFFFFFFFFFFFFFFF DUP2 GT ISZERO PUSH2 0x61B JUMPI PUSH2 0x61A PUSH2 0xCC3 JUMP JUMPDEST JUMPDEST PUSH1 0x40 MLOAD SWAP1 DUP1 DUP3 MSTORE DUP1 PUSH1 0x1F ADD PUSH1 0x1F NOT AND PUSH1 0x20 ADD DUP3 ADD PUSH1 0x40 MSTORE DUP1 ISZERO PUSH2 0x64D JUMPI DUP2 PUSH1 0x20 ADD PUSH1 0x1 DUP3 MUL DUP1 CALLDATASIZE DUP4 CALLDATACOPY DUP1 DUP3 ADD SWAP2 POP POP SWAP1 POP JUMPDEST POP SWAP1 POP JUMPDEST PUSH1 0x0 DUP6 EQ PUSH2 0x6DA JUMPI PUSH1 0x1 DUP3 PUSH2 0x666 SWAP2 SWAP1 PUSH2 0x123A JUMP JUMPDEST SWAP2 POP PUSH1 0xA DUP6 PUSH2 0x675 SWAP2 SWAP1 PUSH2 0x126E JUMP JUMPDEST PUSH1 0x30 PUSH2 0x681 SWAP2 SWAP1 PUSH2 0x129F JUMP JUMPDEST PUSH1 0xF8 SHL DUP2 DUP4 DUP2 MLOAD DUP2 LT PUSH2 0x697 JUMPI PUSH2 0x696 PUSH2 0x12F5 JUMP JUMPDEST JUMPDEST PUSH1 0x20 ADD ADD SWAP1 PUSH31 0xFFFFFFFFFFFFFFFFFFFFFFFFFFFFFFFFFFFFFFFFFFFFFFFFFFFFFFFFFFFFFF NOT AND SWAP1 DUP2 PUSH1 0x0 BYTE SWAP1 MSTORE8 POP PUSH1 0xA DUP6 PUSH2 0x6D3 SWAP2 SWAP1 PUSH2 0x1209 JUMP JUMPDEST SWAP5 POP PUSH2 0x651 JUMP JUMPDEST DUP1 SWAP4 POP POP POP POP JUMPDEST SWAP2 SWAP1 POP JUMP JUMPDEST PUSH1 0x60 PUSH1 0x0 DUP3 PUSH20 0xFFFFFFFFFFFFFFFFFFFFFFFFFFFFFFFFFFFFFFFF AND PUSH1 0x0 SHL SWAP1 POP PUSH1 0x0 PUSH1 0x40 MLOAD DUP1 PUSH1 0x40 ADD PUSH1 0x40 MSTORE DUP1 PUSH1 0x10 DUP2 MSTORE PUSH1 0x20 ADD PUSH32 0x3031323334353637383961626364656600000000000000000000000000000000 DUP2 MSTORE POP SWAP1 POP PUSH1 0x0 PUSH1 0x2A PUSH8 0xFFFFFFFFFFFFFFFF DUP2 GT ISZERO PUSH2 0x75D JUMPI PUSH2 0x75C PUSH2 0xCC3 JUMP JUMPDEST JUMPDEST PUSH1 0x40 MLOAD SWAP1 DUP1 DUP3 MSTORE DUP1 PUSH1 0x1F ADD PUSH1 0x1F NOT AND PUSH1 0x20 ADD DUP3 ADD PUSH1 0x40 MSTORE DUP1 ISZERO PUSH2 0x78F JUMPI DUP2 PUSH1 0x20 ADD PUSH1 0x1 DUP3 MUL DUP1 CALLDATASIZE DUP4 CALLDATACOPY DUP1 DUP3 ADD SWAP2 POP POP SWAP1 POP JUMPDEST POP SWAP1 POP PUSH32 0x3000000000000000000000000000000000000000000000000000000000000000 DUP2 PUSH1 0x0 DUP2 MLOAD DUP2 LT PUSH2 0x7C7 JUMPI PUSH2 0x7C6 PUSH2 0x12F5 JUMP JUMPDEST JUMPDEST PUSH1 0x20 ADD ADD SWAP1 PUSH31 0xFFFFFFFFFFFFFFFFFFFFFFFFFFFFFFFFFFFFFFFFFFFFFFFFFFFFFFFFFFFFFF NOT AND SWAP1 DUP2 PUSH1 0x0 BYTE SWAP1 MSTORE8 POP PUSH32 0x7800000000000000000000000000000000000000000000000000000000000000 DUP2 PUSH1 0x1 DUP2 MLOAD DUP2 LT PUSH2 0x82B JUMPI PUSH2 0x82A PUSH2 0x12F5 JUMP JUMPDEST JUMPDEST PUSH1 0x20 ADD ADD SWAP1 PUSH31 0xFFFFFFFFFFFFFFFFFFFFFFFFFFFFFFFFFFFFFFFFFFFFFFFFFFFFFFFFFFFFFF NOT AND SWAP1 DUP2 PUSH1 0x0 BYTE SWAP1 MSTORE8 POP PUSH1 0x0 JUMPDEST PUSH1 0x14 DUP2 LT ISZERO PUSH2 0x9E5 JUMPI DUP3 PUSH1 0x4 DUP6 PUSH1 0xC DUP5 PUSH2 0x877 SWAP2 SWAP1 PUSH2 0x129F JUMP JUMPDEST PUSH1 0x20 DUP2 LT PUSH2 0x888 JUMPI PUSH2 0x887 PUSH2 0x12F5 JUMP JUMPDEST JUMPDEST BYTE PUSH1 0xF8 SHL PUSH31 0xFFFFFFFFFFFFFFFFFFFFFFFFFFFFFFFFFFFFFFFFFFFFFFFFFFFFFFFFFFFFFF NOT AND SWAP1 SHR PUSH1 0xF8 SHR PUSH1 0xFF AND DUP2 MLOAD DUP2 LT PUSH2 0x8C7 JUMPI PUSH2 0x8C6 PUSH2 0x12F5 JUMP JUMPDEST JUMPDEST PUSH1 0x20 ADD ADD MLOAD PUSH1 0xF8 SHR PUSH1 0xF8 SHL DUP3 PUSH1 0x2 DUP4 PUSH2 0x8E0 SWAP2 SWAP1 PUSH2 0x1324 JUMP JUMPDEST PUSH1 0x2 PUSH2 0x8EC SWAP2 SWAP1 PUSH2 0x129F JUMP JUMPDEST DUP2 MLOAD DUP2 LT PUSH2 0x8FD JUMPI PUSH2 0x8FC PUSH2 0x12F5 JUMP JUMPDEST JUMPDEST PUSH1 0x20 ADD ADD SWAP1 PUSH31 0xFFFFFFFFFFFFFFFFFFFFFFFFFFFFFFFFFFFFFFFFFFFFFFFFFFFFFFFFFFFFFF NOT AND SWAP1 DUP2 PUSH1 0x0 BYTE SWAP1 MSTORE8 POP DUP3 PUSH1 0xF PUSH1 0xF8 SHL DUP6 PUSH1 0xC DUP5 PUSH2 0x940 SWAP2 SWAP1 PUSH2 0x129F JUMP JUMPDEST PUSH1 0x20 DUP2 LT PUSH2 0x951 JUMPI PUSH2 0x950 PUSH2 0x12F5 JUMP JUMPDEST JUMPDEST BYTE PUSH1 0xF8 SHL AND PUSH1 0xF8 SHR PUSH1 0xFF AND DUP2 MLOAD DUP2 LT PUSH2 0x96D JUMPI PUSH2 0x96C PUSH2 0x12F5 JUMP JUMPDEST JUMPDEST PUSH1 0x20 ADD ADD MLOAD PUSH1 0xF8 SHR PUSH1 0xF8 SHL DUP3 PUSH1 0x2 DUP4 PUSH2 0x986 SWAP2 SWAP1 PUSH2 0x1324 JUMP JUMPDEST PUSH1 0x3 PUSH2 0x992 SWAP2 SWAP1 PUSH2 0x129F JUMP JUMPDEST DUP2 MLOAD DUP2 LT PUSH2 0x9A3 JUMPI PUSH2 0x9A2 PUSH2 0x12F5 JUMP JUMPDEST JUMPDEST PUSH1 0x20 ADD ADD SWAP1 PUSH31 0xFFFFFFFFFFFFFFFFFFFFFFFFFFFFFFFFFFFFFFFFFFFFFFFFFFFFFFFFFFFFFF NOT AND SWAP1 DUP2 PUSH1 0x0 BYTE SWAP1 MSTORE8 POP DUP1 DUP1 PUSH2 0x9DD SWAP1 PUSH2 0x1191 JUMP JUMPDEST SWAP2 POP POP PUSH2 0x85D JUMP JUMPDEST POP DUP1 SWAP4 POP POP POP POP SWAP2 SWAP1 POP JUMP JUMPDEST PUSH1 0x60 PUSH1 0x0 PUSH1 0x40 MLOAD DUP1 PUSH1 0x40 ADD PUSH1 0x40 MSTORE DUP1 PUSH1 0x10 DUP2 MSTORE PUSH1 0x20 ADD PUSH32 0x3031323334353637383961626364656600000000000000000000000000000000 DUP2 MSTORE POP SWAP1 POP PUSH1 0x0 PUSH1 0x40 PUSH8 0xFFFFFFFFFFFFFFFF DUP2 GT ISZERO PUSH2 0xA4A JUMPI PUSH2 0xA49 PUSH2 0xCC3 JUMP JUMPDEST JUMPDEST PUSH1 0x40 MLOAD SWAP1 DUP1 DUP3 MSTORE DUP1 PUSH1 0x1F ADD PUSH1 0x1F NOT AND PUSH1 0x20 ADD DUP3 ADD PUSH1 0x40 MSTORE DUP1 ISZERO PUSH2 0xA7C JUMPI DUP2 PUSH1 0x20 ADD PUSH1 0x1 DUP3 MUL DUP1 CALLDATASIZE DUP4 CALLDATACOPY DUP1 DUP3 ADD SWAP2 POP POP SWAP1 POP JUMPDEST POP SWAP1 POP PUSH1 0x0 JUMPDEST PUSH1 0x20 DUP2 LT ISZERO PUSH2 0xBE6 JUMPI DUP3 PUSH1 0x4 DUP7 DUP4 PUSH1 0x20 DUP2 LT PUSH2 0xAA1 JUMPI PUSH2 0xAA0 PUSH2 0x12F5 JUMP JUMPDEST JUMPDEST BYTE PUSH1 0xF8 SHL PUSH31 0xFFFFFFFFFFFFFFFFFFFFFFFFFFFFFFFFFFFFFFFFFFFFFFFFFFFFFFFFFFFFFF NOT AND SWAP1 SHR PUSH1 0xF8 SHR PUSH1 0xFF AND DUP2 MLOAD DUP2 LT PUSH2 0xAE0 JUMPI PUSH2 0xADF PUSH2 0x12F5 JUMP JUMPDEST JUMPDEST PUSH1 0x20 ADD ADD MLOAD PUSH1 0xF8 SHR PUSH1 0xF8 SHL DUP3 PUSH1 0x2 DUP4 PUSH2 0xAF9 SWAP2 SWAP1 PUSH2 0x1324 JUMP JUMPDEST DUP2 MLOAD DUP2 LT PUSH2 0xB0A JUMPI PUSH2 0xB09 PUSH2 0x12F5 JUMP JUMPDEST JUMPDEST PUSH1 0x20 ADD ADD SWAP1 PUSH31 0xFFFFFFFFFFFFFFFFFFFFFFFFFFFFFFFFFFFFFFFFFFFFFFFFFFFFFFFFFFFFFF NOT AND SWAP1 DUP2 PUSH1 0x0 BYTE SWAP1 MSTORE8 POP DUP3 PUSH1 0xF PUSH1 0xF8 SHL DUP7 DUP4 PUSH1 0x20 DUP2 LT PUSH2 0xB52 JUMPI PUSH2 0xB51 PUSH2 0x12F5 JUMP JUMPDEST JUMPDEST BYTE PUSH1 0xF8 SHL AND PUSH1 0xF8 SHR PUSH1 0xFF AND DUP2 MLOAD DUP2 LT PUSH2 0xB6E JUMPI PUSH2 0xB6D PUSH2 0x12F5 JUMP JUMPDEST JUMPDEST PUSH1 0x20 ADD ADD MLOAD PUSH1 0xF8 SHR PUSH1 0xF8 SHL DUP3 PUSH1 0x1 PUSH1 0x2 DUP5 PUSH2 0xB89 SWAP2 SWAP1 PUSH2 0x1324 JUMP JUMPDEST PUSH2 0xB93 SWAP2 SWAP1 PUSH2 0x129F JUMP JUMPDEST DUP2 MLOAD DUP2 LT PUSH2 0xBA4 JUMPI PUSH2 0xBA3 PUSH2 0x12F5 JUMP JUMPDEST JUMPDEST PUSH1 0x20 ADD ADD SWAP1 PUSH31 0xFFFFFFFFFFFFFFFFFFFFFFFFFFFFFFFFFFFFFFFFFFFFFFFFFFFFFFFFFFFFFF NOT AND SWAP1 DUP2 PUSH1 0x0 BYTE SWAP1 MSTORE8 POP DUP1 DUP1 PUSH2 0xBDE SWAP1 PUSH2 0x1191 JUMP JUMPDEST SWAP2 POP POP PUSH2 0xA82 JUMP JUMPDEST POP DUP1 SWAP3 POP POP POP SWAP2 SWAP1 POP JUMP JUMPDEST DUP3 DUP1 SLOAD PUSH2 0xBFD SWAP1 PUSH2 0x1048 JUMP JUMPDEST SWAP1 PUSH1 0x0 MSTORE PUSH1 0x20 PUSH1 0x0 KECCAK256 SWAP1 PUSH1 0x1F ADD PUSH1 0x20 SWAP1 DIV DUP2 ADD SWAP3 DUP3 PUSH2 0xC1F JUMPI PUSH1 0x0 DUP6 SSTORE PUSH2 0xC66 JUMP JUMPDEST DUP3 PUSH1 0x1F LT PUSH2 0xC38 JUMPI DUP1 MLOAD PUSH1 0xFF NOT AND DUP4 DUP1 ADD OR DUP6 SSTORE PUSH2 0xC66 JUMP JUMPDEST DUP3 DUP1 ADD PUSH1 0x1 ADD DUP6 SSTORE DUP3 ISZERO PUSH2 0xC66 JUMPI SWAP2 DUP3 ADD JUMPDEST DUP3 DUP2 GT ISZERO PUSH2 0xC65 JUMPI DUP3 MLOAD DUP3 SSTORE SWAP2 PUSH1 0x20 ADD SWAP2 SWAP1 PUSH1 0x1 ADD SWAP1 PUSH2 0xC4A JUMP JUMPDEST JUMPDEST POP SWAP1 POP PUSH2 0xC73 SWAP2 SWAP1 PUSH2 0xC77 JUMP JUMPDEST POP SWAP1 JUMP JUMPDEST JUMPDEST DUP1 DUP3 GT ISZERO PUSH2 0xC90 JUMPI PUSH1 0x0 DUP2 PUSH1 0x0 SWAP1 SSTORE POP PUSH1 0x1 ADD PUSH2 0xC78 JUMP JUMPDEST POP SWAP1 JUMP JUMPDEST PUSH1 0x0 PUSH1 0x40 MLOAD SWAP1 POP SWAP1 JUMP JUMPDEST PUSH1 0x0 DUP1 REVERT JUMPDEST PUSH1 0x0 DUP1 REVERT JUMPDEST PUSH1 0x0 DUP1 REVERT JUMPDEST PUSH1 0x0 DUP1 REVERT JUMPDEST PUSH1 0x0 PUSH1 0x1F NOT PUSH1 0x1F DUP4 ADD AND SWAP1 POP SWAP2 SWAP1 POP JUMP JUMPDEST PUSH32 0x4E487B7100000000000000000000000000000000000000000000000000000000 PUSH1 0x0 MSTORE PUSH1 0x41 PUSH1 0x4 MSTORE PUSH1 0x24 PUSH1 0x0 REVERT JUMPDEST PUSH2 0xCFB DUP3 PUSH2 0xCB2 JUMP JUMPDEST DUP2 ADD DUP2 DUP2 LT PUSH8 0xFFFFFFFFFFFFFFFF DUP3 GT OR ISZERO PUSH2 0xD1A JUMPI PUSH2 0xD19 PUSH2 0xCC3 JUMP JUMPDEST JUMPDEST DUP1 PUSH1 0x40 MSTORE POP POP POP JUMP JUMPDEST PUSH1 0x0 PUSH2 0xD2D PUSH2 0xC94 JUMP JUMPDEST SWAP1 POP PUSH2 0xD39 DUP3 DUP3 PUSH2 0xCF2 JUMP JUMPDEST SWAP2 SWAP1 POP JUMP JUMPDEST PUSH1 0x0 PUSH8 0xFFFFFFFFFFFFFFFF DUP3 GT ISZERO PUSH2 0xD59 JUMPI PUSH2 0xD58 PUSH2 0xCC3 JUMP JUMPDEST JUMPDEST PUSH2 0xD62 DUP3 PUSH2 0xCB2 JUMP JUMPDEST SWAP1 POP PUSH1 0x20 DUP2 ADD SWAP1 POP SWAP2 SWAP1 POP JUMP JUMPDEST DUP3 DUP2 DUP4 CALLDATACOPY PUSH1 0x0 DUP4 DUP4 ADD MSTORE POP POP POP JUMP JUMPDEST PUSH1 0x0 PUSH2 0xD91 PUSH2 0xD8C DUP5 PUSH2 0xD3E JUMP JUMPDEST PUSH2 0xD23 JUMP JUMPDEST SWAP1 POP DUP3 DUP2 MSTORE PUSH1 0x20 DUP2 ADD DUP5 DUP5 DUP5 ADD GT ISZERO PUSH2 0xDAD JUMPI PUSH2 0xDAC PUSH2 0xCAD JUMP JUMPDEST JUMPDEST PUSH2 0xDB8 DUP5 DUP3 DUP6 PUSH2 0xD6F JUMP JUMPDEST POP SWAP4 SWAP3 POP POP POP JUMP JUMPDEST PUSH1 0x0 DUP3 PUSH1 0x1F DUP4 ADD SLT PUSH2 0xDD5 JUMPI PUSH2 0xDD4 PUSH2 0xCA8 JUMP JUMPDEST JUMPDEST DUP2 CALLDATALOAD PUSH2 0xDE5 DUP5 DUP3 PUSH1 0x20 DUP7 ADD PUSH2 0xD7E JUMP JUMPDEST SWAP2 POP POP SWAP3 SWAP2 POP POP JUMP JUMPDEST PUSH1 0x0 DUP2 SWAP1 POP SWAP2 SWAP1 POP JUMP JUMPDEST PUSH2 0xE01 DUP2 PUSH2 0xDEE JUMP JUMPDEST DUP2 EQ PUSH2 0xE0C JUMPI PUSH1 0x0 DUP1 REVERT JUMPDEST POP JUMP JUMPDEST PUSH1 0x0 DUP2 CALLDATALOAD SWAP1 POP PUSH2 0xE1E DUP2 PUSH2 0xDF8 JUMP JUMPDEST SWAP3 SWAP2 POP POP JUMP JUMPDEST PUSH1 0x0 PUSH20 0xFFFFFFFFFFFFFFFFFFFFFFFFFFFFFFFFFFFFFFFF DUP3 AND SWAP1 POP SWAP2 SWAP1 POP JUMP JUMPDEST PUSH1 0x0 PUSH2 0xE4F DUP3 PUSH2 0xE24 JUMP JUMPDEST SWAP1 POP SWAP2 SWAP1 POP JUMP JUMPDEST PUSH2 0xE5F DUP2 PUSH2 0xE44 JUMP JUMPDEST DUP2 EQ PUSH2 0xE6A JUMPI PUSH1 0x0 DUP1 REVERT JUMPDEST POP JUMP JUMPDEST PUSH1 0x0 DUP2 CALLDATALOAD SWAP1 POP PUSH2 0xE7C DUP2 PUSH2 0xE56 JUMP JUMPDEST SWAP3 SWAP2 POP POP JUMP JUMPDEST PUSH1 0x0 DUP1 PUSH1 0x0 DUP1 PUSH1 0x80 DUP6 DUP8 SUB SLT ISZERO PUSH2 0xE9C JUMPI PUSH2 0xE9B PUSH2 0xC9E JUMP JUMPDEST JUMPDEST PUSH1 0x0 DUP6 ADD CALLDATALOAD PUSH8 0xFFFFFFFFFFFFFFFF DUP2 GT ISZERO PUSH2 0xEBA JUMPI PUSH2 0xEB9 PUSH2 0xCA3 JUMP JUMPDEST JUMPDEST PUSH2 0xEC6 DUP8 DUP3 DUP9 ADD PUSH2 0xDC0 JUMP JUMPDEST SWAP5 POP POP PUSH1 0x20 PUSH2 0xED7 DUP8 DUP3 DUP9 ADD PUSH2 0xE0F JUMP JUMPDEST SWAP4 POP POP PUSH1 0x40 PUSH2 0xEE8 DUP8 DUP3 DUP9 ADD PUSH2 0xE6D JUMP JUMPDEST SWAP3 POP POP PUSH1 0x60 PUSH2 0xEF9 DUP8 DUP3 DUP9 ADD PUSH2 0xE0F JUMP JUMPDEST SWAP2 POP POP SWAP3 SWAP6 SWAP2 SWAP5 POP SWAP3 POP JUMP JUMPDEST PUSH1 0x0 DUP2 MLOAD SWAP1 POP SWAP2 SWAP1 POP JUMP JUMPDEST PUSH1 0x0 DUP3 DUP3 MSTORE PUSH1 0x20 DUP3 ADD SWAP1 POP SWAP3 SWAP2 POP POP JUMP JUMPDEST PUSH1 0x0 JUMPDEST DUP4 DUP2 LT ISZERO PUSH2 0xF3F JUMPI DUP1 DUP3 ADD MLOAD DUP2 DUP5 ADD MSTORE PUSH1 0x20 DUP2 ADD SWAP1 POP PUSH2 0xF24 JUMP JUMPDEST DUP4 DUP2 GT ISZERO PUSH2 0xF4E JUMPI PUSH1 0x0 DUP5 DUP5 ADD MSTORE JUMPDEST POP POP POP POP JUMP JUMPDEST PUSH1 0x0 PUSH2 0xF5F DUP3 PUSH2 0xF05 JUMP JUMPDEST PUSH2 0xF69 DUP2 DUP6 PUSH2 0xF10 JUMP JUMPDEST SWAP4 POP PUSH2 0xF79 DUP2 DUP6 PUSH1 0x20 DUP7 ADD PUSH2 0xF21 JUMP JUMPDEST PUSH2 0xF82 DUP2 PUSH2 0xCB2 JUMP JUMPDEST DUP5 ADD SWAP2 POP POP SWAP3 SWAP2 POP POP JUMP JUMPDEST PUSH1 0x0 PUSH1 0x20 DUP3 ADD SWAP1 POP DUP2 DUP2 SUB PUSH1 0x0 DUP4 ADD MSTORE PUSH2 0xFA7 DUP2 DUP5 PUSH2 0xF54 JUMP JUMPDEST SWAP1 POP SWAP3 SWAP2 POP POP JUMP JUMPDEST PUSH2 0xFB8 DUP2 PUSH2 0xDEE JUMP JUMPDEST DUP3 MSTORE POP POP JUMP JUMPDEST PUSH2 0xFC7 DUP2 PUSH2 0xE44 JUMP JUMPDEST DUP3 MSTORE POP POP JUMP JUMPDEST PUSH1 0x0 PUSH1 0x80 DUP3 ADD SWAP1 POP DUP2 DUP2 SUB PUSH1 0x0 DUP4 ADD MSTORE PUSH2 0xFE7 DUP2 DUP8 PUSH2 0xF54 JUMP JUMPDEST SWAP1 POP PUSH2 0xFF6 PUSH1 0x20 DUP4 ADD DUP7 PUSH2 0xFAF JUMP JUMPDEST PUSH2 0x1003 PUSH1 0x40 DUP4 ADD DUP6 PUSH2 0xFBE JUMP JUMPDEST PUSH2 0x1010 PUSH1 0x60 DUP4 ADD DUP5 PUSH2 0xFAF JUMP JUMPDEST SWAP6 SWAP5 POP POP POP POP POP JUMP JUMPDEST PUSH32 0x4E487B7100000000000000000000000000000000000000000000000000000000 PUSH1 0x0 MSTORE PUSH1 0x22 PUSH1 0x4 MSTORE PUSH1 0x24 PUSH1 0x0 REVERT JUMPDEST PUSH1 0x0 PUSH1 0x2 DUP3 DIV SWAP1 POP PUSH1 0x1 DUP3 AND DUP1 PUSH2 0x1060 JUMPI PUSH1 0x7F DUP3 AND SWAP2 POP JUMPDEST PUSH1 0x20 DUP3 LT DUP2 EQ ISZERO PUSH2 0x1074 JUMPI PUSH2 0x1073 PUSH2 0x1019 JUMP JUMPDEST JUMPDEST POP SWAP2 SWAP1 POP JUMP JUMPDEST PUSH1 0x0 DUP2 SWAP1 POP SWAP3 SWAP2 POP POP JUMP JUMPDEST PUSH1 0x0 PUSH2 0x1090 DUP3 PUSH2 0xF05 JUMP JUMPDEST PUSH2 0x109A DUP2 DUP6 PUSH2 0x107A JUMP JUMPDEST SWAP4 POP PUSH2 0x10AA DUP2 DUP6 PUSH1 0x20 DUP7 ADD PUSH2 0xF21 JUMP JUMPDEST DUP1 DUP5 ADD SWAP2 POP POP SWAP3 SWAP2 POP POP JUMP JUMPDEST PUSH32 0x2300000000000000000000000000000000000000000000000000000000000000 PUSH1 0x0 DUP3 ADD MSTORE POP JUMP JUMPDEST PUSH1 0x0 PUSH2 0x10EC PUSH1 0x1 DUP4 PUSH2 0x107A JUMP JUMPDEST SWAP2 POP PUSH2 0x10F7 DUP3 PUSH2 0x10B6 JUMP JUMPDEST PUSH1 0x1 DUP3 ADD SWAP1 POP SWAP2 SWAP1 POP JUMP JUMPDEST PUSH1 0x0 PUSH2 0x110E DUP3 DUP8 PUSH2 0x1085 JUMP JUMPDEST SWAP2 POP PUSH2 0x111A DUP3 DUP7 PUSH2 0x1085 JUMP JUMPDEST SWAP2 POP PUSH2 0x1126 DUP3 DUP6 PUSH2 0x1085 JUMP JUMPDEST SWAP2 POP PUSH2 0x1131 DUP3 PUSH2 0x10DF JUMP JUMPDEST SWAP2 POP PUSH2 0x113D DUP3 DUP5 PUSH2 0x1085 JUMP JUMPDEST SWAP2 POP DUP2 SWAP1 POP SWAP6 SWAP5 POP POP POP POP POP JUMP JUMPDEST PUSH1 0x0 PUSH2 0x1157 DUP3 DUP5 PUSH2 0x1085 JUMP JUMPDEST SWAP2 POP DUP2 SWAP1 POP SWAP3 SWAP2 POP POP JUMP JUMPDEST PUSH32 0x4E487B7100000000000000000000000000000000000000000000000000000000 PUSH1 0x0 MSTORE PUSH1 0x11 PUSH1 0x4 MSTORE PUSH1 0x24 PUSH1 0x0 REVERT JUMPDEST PUSH1 0x0 PUSH2 0x119C DUP3 PUSH2 0xDEE JUMP JUMPDEST SWAP2 POP PUSH32 0xFFFFFFFFFFFFFFFFFFFFFFFFFFFFFFFFFFFFFFFFFFFFFFFFFFFFFFFFFFFFFFFF DUP3 EQ ISZERO PUSH2 0x11CF JUMPI PUSH2 0x11CE PUSH2 0x1162 JUMP JUMPDEST JUMPDEST PUSH1 0x1 DUP3 ADD SWAP1 POP SWAP2 SWAP1 POP JUMP JUMPDEST PUSH32 0x4E487B7100000000000000000000000000000000000000000000000000000000 PUSH1 0x0 MSTORE PUSH1 0x12 PUSH1 0x4 MSTORE PUSH1 0x24 PUSH1 0x0 REVERT JUMPDEST PUSH1 0x0 PUSH2 0x1214 DUP3 PUSH2 0xDEE JUMP JUMPDEST SWAP2 POP PUSH2 0x121F DUP4 PUSH2 0xDEE JUMP JUMPDEST SWAP3 POP DUP3 PUSH2 0x122F JUMPI PUSH2 0x122E PUSH2 0x11DA JUMP JUMPDEST JUMPDEST DUP3 DUP3 DIV SWAP1 POP SWAP3 SWAP2 POP POP JUMP JUMPDEST PUSH1 0x0 PUSH2 0x1245 DUP3 PUSH2 0xDEE JUMP JUMPDEST SWAP2 POP PUSH2 0x1250 DUP4 PUSH2 0xDEE JUMP JUMPDEST SWAP3 POP DUP3 DUP3 LT ISZERO PUSH2 0x1263 JUMPI PUSH2 0x1262 PUSH2 0x1162 JUMP JUMPDEST JUMPDEST DUP3 DUP3 SUB SWAP1 POP SWAP3 SWAP2 POP POP JUMP JUMPDEST PUSH1 0x0 PUSH2 0x1279 DUP3 PUSH2 0xDEE JUMP JUMPDEST SWAP2 POP PUSH2 0x1284 DUP4 PUSH2 0xDEE JUMP JUMPDEST SWAP3 POP DUP3 PUSH2 0x1294 JUMPI PUSH2 0x1293 PUSH2 0x11DA JUMP JUMPDEST JUMPDEST DUP3 DUP3 MOD SWAP1 POP SWAP3 SWAP2 POP POP JUMP JUMPDEST PUSH1 0x0 PUSH2 0x12AA DUP3 PUSH2 0xDEE JUMP JUMPDEST SWAP2 POP PUSH2 0x12B5 DUP4 PUSH2 0xDEE JUMP JUMPDEST SWAP3 POP DUP3 PUSH32 0xFFFFFFFFFFFFFFFFFFFFFFFFFFFFFFFFFFFFFFFFFFFFFFFFFFFFFFFFFFFFFFFF SUB DUP3 GT ISZERO PUSH2 0x12EA JUMPI PUSH2 0x12E9 PUSH2 0x1162 JUMP JUMPDEST JUMPDEST DUP3 DUP3 ADD SWAP1 POP SWAP3 SWAP2 POP POP JUMP JUMPDEST PUSH32 0x4E487B7100000000000000000000000000000000000000000000000000000000 PUSH1 0x0 MSTORE PUSH1 0x32 PUSH1 0x4 MSTORE PUSH1 0x24 PUSH1 0x0 REVERT JUMPDEST PUSH1 0x0 PUSH2 0x132F DUP3 PUSH2 0xDEE JUMP JUMPDEST SWAP2 POP PUSH2 0x133A DUP4 PUSH2 0xDEE JUMP JUMPDEST SWAP3 POP DUP2 PUSH32 0xFFFFFFFFFFFFFFFFFFFFFFFFFFFFFFFFFFFFFFFFFFFFFFFFFFFFFFFFFFFFFFFF DIV DUP4 GT DUP3 ISZERO ISZERO AND ISZERO PUSH2 0x1373 JUMPI PUSH2 0x1372 PUSH2 0x1162 JUMP JUMPDEST JUMPDEST DUP3 DUP3 MUL SWAP1 POP SWAP3 SWAP2 POP POP JUMP INVALID LOG2 PUSH5 0x6970667358 0x22 SLT KECCAK256 0xE1 RETURNDATACOPY 0xEB 0x25 DUP1 PUSH28 0x658377EB479AB95C7E042D936580C7A72A1B48A26549847DA6D26473 PUSH16 0x6C634300080900330000000000000000 "},"methodIdentifiers":{"U()":"2688454a","Ue()":"e799944b","parameters()":"89035730","xyz(string,uint256,address,uint256)":"13642d9d"}}}}}